:100000000C94E6000C940E010C940E010C940E015D
:100010000C94410D0C940E010C940E010C940E01E5
:100020000C940E010C940E010C940E010C940E0114
:100030000C940E010C940C260C940E010C940E01E1
:100040000C940E010C940E010C94C8260C940E0115
:100050000C94D02A0C94022B0C940E010C940E01DB
:100060000C940E010C940E010C9475140C940E015A
:100070000C940E010C940E010C940E01740A7C0A6F
:100080007F0A770A840A020BD70A020BEA0A020BDC
:10009000C10A020B020BBC0A05A84CCDB2D44EB962
:1000A0003836A9020C50B9918688083CA6AAAA2A1B
:1000B000BE000000803F5741524E494E473A204310
:1000C0006F6D6D756E69636174696F6E20666169CD
:1000D0006C7572652C20697320746865204D4652DA
:1000E000433532322070726F7065726C7920636FA5
:1000F0006E6E65637465643F00203D2028756E6BED
:100100006E6F776E2900203D2076322E3000203D24
:100110002076312E3000203D2076302E3000203DDC
:100120002028636C6F6E6529004669726D77617275
:10013000652056657273696F6E3A20307800000052
:100140000001020000000000000004030807000096
:10015000000000000000000000000000000001029C
:100160000408102040800102040810204080010291
:100170000408102040808040201008040201020280
:10018000020202020202040404040404040403033D
:100190000303030303030101010101010101000045
:1001A000200023002600290000002200250028004E
:1001B0002B0000002100240027002A0082042207CF
:1001C000B108660C15119313322BBA0811241FBE07
:1001D000CFEFD0E1DEBFCDBF12E0A0E0B1E0E0E2C2
:1001E000F7E602C005900D92AC33B107D9F727E0CE
:1001F000ACE3B2E001C01D92A735B207E1F711E010
:10020000CAECD1E004C02297FE010E94D231CC3B5F
:10021000D107C9F70E94762B0C9483330C9400000D
:1002200061E083E00E94562861E084E00C94562847
:100230004F925F926F927F928F929F92AF92BF92F6
:10024000CF92DF92EF92FF920F931F93CF93DF93A2
:1002500000D000D0CDB7DEB76B017C0149015A0157
:1002600020E030E040E85FE30E9459301816E4F0E7
:1002700020E030E0A901C701B6010E94CE2E87FD23
:100280001AC020E030EC4AED54E4C701B6010E94E8
:100290005D300E94422F6B017C018EEEC80E82E021
:1002A000D81EE11CF11C0DC044ECC42E49E0D42E34
:1002B000E12CF12C06C03EEEC32E32E0D32EE12C11
:1002C000F12C20E030E040E85FE3C501B4010E947A
:1002D00059301816E4F020E030E0A901C501B4015E
:1002E0000E94CE2E87FD1AC020E030EC4AED54E487
:1002F000C501B4010E945D300E94422F4B015C0198
:100300009EEE890E92E0991EA11CB11C0DC024EC3A
:10031000822E29E0922EA12CB12C06C09EEE892EB1
:1003200092E0992EA12CB12C80E1482E87E2582E24
:10033000612C712CD301C2018C199D09AE09BF0932
:1003400089839A83AB83BC83481859086A087B0861
:10035000043111053CF0C8016AE070E00E947B3175
:100360008B0102C002E010E061E000FD0DC083E0FF
:100370000E948F28C6010E94692760E083E00E94E6
:100380008F2889819A810BC084E00E948F28C40144
:100390000E94692760E084E00E948F28C2010E94C9
:1003A00069270150110901F70F900F900F900F90DE
:1003B000DF91CF911F910F91FF90EF90DF90CF9041
:1003C000BF90AF909F908F907F906F905F904F9075
:1003D00008958CE392E00E94C9218CE392E00C9492
:1003E000AA256E3B25EB720723ED82072FEE9207BD
:1003F00009F459C108F082C06E3827E7720728EC6B
:1004000082072FEE920709F430C1E0F56E3726E53A
:10041000720726EC82072FEE920709F408C1C8F490
:100420006E342FEE720724EC82072FEE920709F448
:1004300013C16E392FEE720725EC82072FEE92075B
:1004400009F401C16537734D8745954C09F0D4C057
:100450002DC16E302EE4720728EC82072FEE920732
:1004600009F4D0C06E3E27E6720728EC82072FEE13
:10047000920709F4F7C06E3F7F4B874C9F4E09F0FF
:10048000BBC017C16E3A2CE672072EEC82072FEE26
:10049000920709F4F0C0C8F46E3E28EC72072AEC0B
:1004A00082072FEE920709F4B0C06E3928EC72076C
:1004B0002BEC82072FEE920709F4B3C06E3E764F05
:1004C000884C9F4E09F098C0BBC06E332DEE72076A
:1004D0002FEC82072FEE920709F4B8C06E3B2BE693
:1004E000720721ED82072FEE920709F4A6C06E3F36
:1004F000744B8F4C9F4E09F07FC081C06E3421EC4D
:1005000072072AED82072FEE920709F4A8C0D8F5EA
:100510006E3B27EE720726ED82072FEE920709F455
:1005200089C0C8F46E3A27EA720726ED82072FEEDB
:10053000920709F48EC06E372DEC720726ED820704
:100540002FEE920709F494C06E3C7848864D9F4E7A
:1005500009F052C069C06E3D26E7720729ED820797
:100560002FEE920709F48DC06E372AEE720729ED3F
:1005700082072FEE920709F48DC06E3C7F4E874DA7
:100580009F4ED1F581C06E332BE3720722EE8207B6
:100590002FEE920709F43FC0B8F46E3B20EA7207D1
:1005A0002CED82072FEE920709F468C06E3922E124
:1005B00072072FED82072FEE920781F16E307E4D8C
:1005C0008B4D9F4EC9F424C06E3A27E4720724EE87
:1005D00082072FEE920709F463C06E3A2DE5720789
:1005E00024EE82072FEE920709F457C06E3375444C
:1005F000824E9F4E09F44BC080E090E0089582E067
:1006000090E0089583E090E0089584E090E00895FC
:1006100085E090E0089586E090E0089587E090E01E
:10062000089588E090E0089589E090E008958AE0D8
:1006300090E008958BE090E008958CE090E00895BC
:100640008DE090E008958EE090E008958FE090E0D6
:10065000089580E190E0089581E190E0089582E1BD
:1006600090E0089583E190E0089584E190E008959A
:1006700085E190E0089587E190E0089586E190E0BB
:10068000089588E190E0089589E190E008958AE175
:1006900090E008958BE190E008958CE190E008955A
:1006A0008DE190E008958EE190E008958FE190E073
:1006B000089581E090E008958CE392E00E94E325A4
:1006C000882329F08CE392E00E940226F5CF08955A
:1006D000CF92DF92EF92FF920F931F93CF93DF930E
:1006E000CDB7DEB769970FB6F894DEBF0FBECDBFAA
:1006F0008CE392E00E94E325882309F483C08CE315
:1007000092E00E940226882309F47CC080913C027A
:10071000843079F065E171E086EB96E00E94E82B89
:100720004AE050E060913C0286EB96E00E940A2D80
:1007300069C060913D0270913E0280913F029091AC
:1007400040020E94F1018C01009709F05EC046E072
:1007500050E06FEF70E0CE0143960E94743382E167
:10076000898F0CE312E09E012D5E3F4F47E060E66B
:10077000C8010E941C25892B39F066E371E086EBE5
:1007800096E00E94172C3EC09E01275E3F4FAE01AF
:100790004F5F5F4F64E08CE392E00E947125892BEC
:1007A00079F067E571E086EB96E00E94172C8CE308
:1007B00092E00E94D7248CE392E00E946D2522C033
:1007C000C980DA80EB80FC80C701B6010E94F1018C
:1007D0008C018CE392E00E94D7248CE392E00E948B
:1007E0006D250115110589F467E771E086EB96E048
:1007F0000E94E82B2AE030E0B701A60186EB96E0E4
:100800000E94212D80E090E003C00E945C03C8019B
:1008100069960FB6F894DEBF0FBECDBFDF91CF91C2
:100820001F910F91FF90EF90DF90CF9008959C0162
:10083000215031092230310558F02151310927303A
:10084000310530F021E00C9709F020E0822F089567
:1008500081E008958830910544F08B3091051CF0BB
:100860000D97029710F481E0089580E008959C01AF
:100870002951310981E02730310508F080E00895E1
:10088000FC011192119280E991E0DF019C011D921F
:1008900021503040E1F708950C944004DC01ED91C3
:1008A000FC911197E83CF10559F03196ED93FC93DA
:1008B000EE0FFF1FE80FF91F7183608381E0089539
:1008C00080E0089577FD0FC0FC012081318162171F
:1008D00073074CF4FB013196EE0FFF1FE80FF91F71
:1008E00080819181089580E090E00895FC018081ED
:1008F00091810895FC0181E020813181232B09F051
:1009000080E008954DE16EE08CE392E00C948D2040
:10091000CF92DF92EF92FF920F931F93CF93C9E193
:1009200084ECC82E89E0D82EE12CF12C06E410E0EE
:10093000A701960164E670E080E090E00E94E41177
:1009400040E06C2F80E00E94A70784EFC81A81E086
:10095000D80AE108F108C55BC53441F7CF911F9172
:100960000F91FF90EF90DF90CF9008950F931F931A
:1009700040E060E08FEF0E94A70706E410E028E85F
:1009800033E140E050E064EF71E080E090E00E94ED
:10099000E4111F910F9108952F923F924F925F9211
:1009A0006F927F928F929F92AF92BF92CF92DF927F
:1009B000EF92FF920F931F93CF93DF9300D000D05D
:1009C000CDB7DEB79CE1292E312CC12CD12C76017C
:1009D000A7019601C701B6010E946A2E2BED3FE0E8
:1009E00049E450E40E945D300E94C0304B015C013C
:1009F00020E030E040E350E4C701B6010E94D52E6C
:100A00009B01AC0160E070E080E89FE30E94692EEA
:100A100069837A838B839C8320E030E04CE852E446
:100A20000E945D300E943D2F2B013C0120E030E010
:100A300040E05FE3C501B4010E945D3020E030E09A
:100A400040E05FE30E946A2E20E030E84BE354E48C
:100A50000E945D3020E030E84BE354E40E946A2EAF
:100A60000E94422F9B01AC01820164E670E080E0AD
:100A700090E00E94E411C501B401905829813A81A7
:100A80004B815C810E945D3020E030E04FE753E411
:100A90000E945D302B013C0120E030E0A9010E9462
:100AA000CE2E87FD06C0C301B2010E94422F762ED2
:100AB00001C0712C29813A814B815C81C501B4014F
:100AC0000E945D3020E030E04FE753E40E945D304B
:100AD0004B015C0120E030E0A9010E94CE2E87FD91
:100AE00006C0C501B4010E94422F862F01C080E0DC
:100AF000472D60E00E94A7072DEC3CEC4CEC5DE339
:100B0000C701B6010E946A2E6B017C0181E0281AA0
:100B1000310809F05DCF0F900F900F900F90DF918B
:100B2000CF911F910F91FF90EF90DF90CF90BF90EA
:100B3000AF909F908F907F906F905F904F903F907D
:100B40002F9008950F931F9340E060E480E40E948B
:100B5000A70706E410E022EE34E040E050E06CE24B
:100B600071E080E090E00E94E41140E060E080E00D
:100B70000E94A70768EC70E080E090E00E944127A7
:100B800040E06FEF8FEF0E94A70722EE34E040E0D5
:100B900050E06CE271E080E090E00E94E41140E0FF
:100BA00060E080E00E94A70768EC70E080E090E0E1
:100BB0000E94412740E06FEF80E00E94A70720E2FB
:100BC00033E040E050E06CE271E080E090E00E94B1
:100BD000E41140E060E080E01F910F910C94A707C2
:100BE0000F931F93CF93C82F40E060E080E00E94F6
:100BF000A707CC2309F43FC04FEF6FEF8FEF0E94A0
:100C0000A70706E410E020E233E040E050E066E9A8
:100C100070E080E090E00E94E41166E970E080E01E
:100C200090E00E94412748EC68EC88EC0E94A707FE
:100C300028EE33E040E050E06AEF70E080E090E0C2
:100C40000E94E41168EC70E080E090E00E9441278F
:100C500040E860E880E80E94A70720ED37E040E028
:100C600050E060E971E080E090E00E94E411CF91F3
:100C70001F910F91089540E860E880E80E94A7075F
:100C800006E410E020ED37E040E050E060E971E07C
:100C900080E090E00E94E41168EC70E080E090E079
:100CA0000E94412748EC68EC88EC0E94A70728EED8
:100CB00033E040E050E06AEF70E080E090E00E94B6
:100CC000E41166E970E080E090E00E9441274FEF78
:100CD0006FEF8FEF0E94A70720E233E040E050E083
:100CE00066E970E080E090E00E94E41166E970E05F
:100CF00080E090E0CF911F910F910C9441270F93CA
:100D00001F93CF93DF9300D000D0CDB7DEB78931EA
:100D1000910534F0803291052CF08FE190E002C013
:100D200089E190E04997DC01AA0FBB1FAE56BE4F88
:100D30002D913C91442737FD4095542FFC01EE0F37
:100D4000FF1FEE0FFF1FE65BFD4F60817181828107
:100D5000938129833A834B835C830E94800706E456
:100D600010E029813A814B815C816CE271E080E086
:100D700090E00E94E4110F900F900F900F90DF9180
:100D8000CF911F910F9108958531910554F48231CF
:100D90009105B4F48130910579F0029779F40C94BF
:100DA000CC048731910554F0893191054CF08032A3
:100DB000910524F40C947F060C94A2050C948804ED
:100DC00008950F931F9340E08823D1F064E684E6F2
:100DD0000E94A70706E410E028EE33E040E050E070
:100DE0006CE271E080E090E00E94E41140E066E493
:100DF00086E40E94A70724E135E040E050E019C0F6
:100E000066E486E40E94A70706E410E024E135E0EA
:100E100040E050E06CE271E080E090E00E94E4117C
:100E200040E064E684E60E94A70728EE33E040E055
:100E300050E06CE271E080E090E00E94E4111F91CC
:100E40000F91089540E460E48FEF0E947E07609365
:100E50004A0270934B0280934C0290934D0240E003
:100E600060E88FEF0E947E0760934E0270934F02FE
:100E7000809350029093510240E06FEF8FEF0E94F9
:100E80007E076093520270935302809354029093B2
:100E9000550240E06FEF80E00E947E0760935602AB
:100EA0007093570280935802909359024CEC6CEC6B
:100EB00080E00E947E0760935A0270935B028093E9
:100EC0005C0290935D024FEF60E08FE70E947E0727
:100ED00060935E0270935F02809360029093610260
:100EE0004FE760E08FEF0E947E076093620270938D
:100EF0006302809364029093650208950C94F01F3E
:100F0000CF92DF92EF92FF926B017C019B01AC01CB
:100F100060E070E086E692E00E948B1FA7019601D8
:100F200061E070E086E692E00E948B1F86E692E028
:100F3000FF90EF90DF90CF900C94EC1D86E692E04E
:100F40000E94681D60E070E0CB010C9480070E9455
:100F5000F01F0C948007CF92DF92EF920F93CF9304
:100F6000DF931F92CDB7DEB76C01FC014083518344
:100F70006283738329830E941E27F601648375832D
:100F80008683978310861186128613862981622FA5
:100F900070E080E090E00E946E2FF6016487758714
:100FA00086879787602F70E080E090E00E946E2F28
:100FB000F601608B718B828B938B6E2D70E080E0DD
:100FC00090E00E946E2FF601648B758B868B978B59
:100FD0000F90DF91CF910F91EF90DF90CF90089518
:100FE000CF92DF92EF92FF920F931F93CF93DF93F5
:100FF000EC010E941E278B019C01688579858A85FA
:101000009B85CC80DD80EE80FF806C197D098E0988
:101010009F09600F711F821F931F688779878A87D6
:101020009B870C831D832E833F830E946E2F6B0151
:101030007C01688179818A819B810E946E2F9B014E
:10104000AC01C701B6010E94D52E9B01AC010E94E4
:101050006A2E2BED3FE049E450E40E945D300E948F
:10106000D22E20E030E040E05FE30E945D309B0143
:10107000AC0160E070E080E09FE30E94692E6B01AC
:101080007C012C893D894E895F890E945D300E94D8
:10109000422F062F288939894A895B89C701B60101
:1010A0000E945D300E94422F162F2C853D854E8573
:1010B0005F85C701B6010E945D300E94422F862FD6
:1010C000402F612FDF91CF911F910F91FF90EF90F3
:1010D000DF90CF900C94A7070F931F93CF93DF93CC
:1010E00000D0CDB7DEB78C0170E080E090E02A83BD
:1010F00049830E946E2FF8016487758786879787DA
:101100004981642F70E080E090E00E946E2FF8012A
:10111000608B718B828B938B2A81622F70E080E0D1
:1011200090E00E946E2FF801648B758B868B978BF5
:101130000F900F90DF91CF911F910F910895FC01B7
:1011400064857585868597850895FC016089718918
:10115000828993890895FC016489758986899789B4
:10116000089522E530E045E165E070E086E692E032
:101170000C94631F86E692E00C94541D4F925F928C
:101180006F927F928F929F92AF92BF92CF92DF9297
:10119000EF92FF92CF93DF931F92CDB7DEB78FE927
:1011A00095E00E94AB082B013C018FE995E00E947D
:1011B000A5084B015C018FE995E00E949F086B0137
:1011C0007C01C301B2010E94422F462FC501B40128
:1011D00049830E94422FB62EC701B6010E94422FBA
:1011E000862F49816B2D0F90DF91CF91FF90EF906B
:1011F000DF90CF90BF90AF909F908F907F906F9037
:101200005F904F900C94A7078AE10E94AF27BC0122
:10121000882777FD8095982F0E94702F26E636E666
:101220004EE15CE30E945D30089560EA71E086EB78
:1012300096E00E94E82B0E940409AB01BC0122E069
:1012400030E086EB96E00E941E2E62EB71E086EBAA
:1012500096E00E94E82B86EB96E00C94F12BCF925F
:10126000DF92EF92FF920F931F930E946D0D0E94E9
:10127000BB110E949E0726E040E051EE60E070E066
:1012800086EB96E00E94742A0E948A120E944812FD
:101290000E94E9010E9410010E9421110E94801207
:1012A0000E94202E60E08AE10E94562800E911E0A9
:1012B00020E030E040E85FE360E070E0CB010E94B6
:1012C00018010E9415090E9404096B017C012DEC94
:1012D0003CEC4CEE50E40E94593018161CF440E0EF
:1012E0006FEF0CC020E030E040EE50E4C701B601E3
:1012F0000E945930181624F44FEF60E080E00DC0D2
:101300002FEF3FE848ED50E4C701B6010E94593085
:1013100018162CF440E06FEF8FEF0E94A7076CEDDA
:1013200075E080E090E01F910F91FF90EF90DF90CB
:10133000CF900C9441278DE094E00E9440048BE70D
:1013400092E00E94400482E090E00C94C406CF92A8
:10135000DF92EF92FF926B017C010E9412276C19C1
:101360007D098E099F090E946E2F20E030E04AE738
:1013700054E40E94D52E20E030E040E850E40E9482
:101380005D309B01AC010E946A2E2BED3FE049E4E9
:1013900050E40E945D300E94C03020E030E040E820
:1013A0005FE30E946A2E20E030E040E05FE30E94AD
:1013B0005D3020E030E040E053E40E945D3020E00A
:1013C00030E040E053E40E946A2E0E94422F862FB4
:1013D000462FFF90EF90DF90CF900C94A7078F924D
:1013E0009F92AF92BF92CF92DF92EF92FF924C0109
:1013F0000E9412276B017C01AA2497FCA094BA2CAE
:101400000E9412276C197D098E099F0968157905BC
:101410008A059B0528F4C701B6010E94A709F0CFF1
:10142000FF90EF90DF90CF90BF90AF909F908F9004
:1014300008952F923F924F925F926F927F928F9278
:101440009F92AF92BF92CF92DF92EF92FF920F9353
:101450001F93CF93DF93CDB7DEB729970FB6F894DC
:10146000DEBF0FBECDBF9B838A837D836C830E94CA
:10147000BE08212C312C19861886412C512C3201A2
:1014800019828C819D8101969F838E838A819B81A5
:101490000E947604281639060CF03BC164EB71E01B
:1014A00086EB96E00E94E82B4AE050E0688579855B
:1014B00086EB96E00E94CC2CB1018A819B810E9430
:1014C00062045C0199819111D4C0E885F985319657
:1014D00009F4BCC0F5013397EE30F10508F092C075
:1014E000E25CFF4F0C94D03180E293E002C080EECA
:1014F0009CEF0E94E50FAAC08AE590E002C086EA50
:101500009FEF0E94C00DA2C0C0900E01D0900F01AD
:10151000E0901001F0901101A701960160E070E0E9
:1015200080E89FE30E94692E9B01AC0100E911E075
:10153000C701B6010E94180120E030E0A9016091C6
:101540000E0170910F0180911001909111010E9484
:10155000CE2E811105C086E696E6A6E2BFE303C063
:1015600080E090E0DC0180930E0190930F01A09346
:101570001001B09311016AC088EE93E00E94EF0958
:1015800065C022E030E040E050E060E070E0CB0178
:101590000E944C2EECE2CE2EDD24D394E12CF12CD3
:1015A000672B682B692BE1F58FEF9FEF3BC00E9403
:1015B000291120E030E040E251E40E9459305CE221
:1015C000C52EDD24D394E12CF12C181674F5EFEF21
:1015D000FFEF2DC08A819B818B57924059F18885FE
:1015E0009985892B39F5EC81FD81E93CF1053CF4C5
:1015F0006E817F818BE792E00E94190A27C00E94CA
:10160000B60424C0C5010E9437048823F9F0C5013F
:101610000E947F0644E6C42ED12CE12CF12C1CC084
:1016200081E090E09987888717C0E1E0F0E0F987D2
:10163000E88712C02CE2C22EDD24D394E12CF12CD9
:1016400022242A94322C1986188606C09CE2C92EC0
:10165000DD24D394E12CF12CC5010E942A048111D0
:1016600002C019861886FFEF2F1A3F0A0E94BE0893
:1016700008C0C301B2010E94A709C12CD12C760178
:10168000C3940E9412274B015C010E941227681923
:1016900079098A099B096C157D058E059F0508F05F
:1016A000F5CE0E94680382309105D1F429960FB6D9
:1016B000F894DEBF0FBECDBFDF91CF911F910F9188
:1016C000FF90EF90DF90CF90BF90AF909F908F9062
:1016D0007F906F905F904F903F902F900C949B095C
:1016E0008130910541F481E090E00E94C406212CF4
:1016F000312C1982CBCE409741F6298181E02827F1
:101700002983822F0E94F0050E9412272B013C01A1
:10171000BCCF29960FB6F894DEBF0FBECDBFDF91C8
:10172000CF911F910F91FF90EF90DF90CF90BF90DE
:10173000AF909F908F907F906F905F904F903F9071
:101740002F9008958DE094E00E947A0481110CC0DE
:1017500081E090E00E94C40661E070E08DE094E0DA
:101760000E94190A0C945C030C94B604CF93DF9387
:101770008AE10E94AF278C3B9240CCF440E060E0CD
:101780008FEF0E94A70762EC71E086EB96E00E9463
:10179000172C0E94150968EE73E080E090E00E942B
:1017A000412740E060E080E00E94A707FFCF8FE97B
:1017B00095E00E94F0070E946803EC01009709F48D
:1017C00082C04AE050E0BC0186EB96E00E94CC2C3F
:1017D000CE010E941704882309F463C0C231D105E9
:1017E00011F420E01DC0C331D10549F420E04FEFD2
:1017F00060E08FE995E0DF91CF910C946C08C831DF
:10180000D10519F42FEF40E0F3CFC431D10521F415
:1018100020E040E86FEFEDCFC631D10519F42FEF8E
:1018200040E0F8CFC531D10519F420E048ECF2CF03
:10183000C731D10521F42FEF40E06FE7DACFC13097
:10184000D10521F4DF91CF910C94A20BC230D105C8
:1018500021F4DF91CF910C949B092C97A1F58091F5
:1018600012019091130124E08D30920761F48BE70F
:1018700092E00E9440048BE792E0909313018093E2
:10188000120180E00AC08B579240E9F48DE094E0A9
:10189000909313018093120181E0DF91CF910C941A
:1018A000E106BE0180911201909113010E944E0445
:1018B000811104C0DF91CF910C94B604CE01DF9169
:1018C000CF910C94C406DF91CF910895EF920F93BE
:1018D000EE24EA940FEF2FEF40E854E86EE170E059
:1018E0008FE995E00E94AB078DE094E00E944C04E4
:1018F0008BE792E00F91EF900C944C04CF93DF9321
:10190000EC01862F688379830E94C5289B838A8394
:101910001D821C82DF91CF910895CF93DF93EC015C
:1019200088810E94C528009739F48A819B8101979C
:1019300089F41B821A820EC08130910559F42A81E4
:101940003B81232B39F49B838A838C819D81019673
:101950009D838C83DF91CF910895CF93C8EEC80FFC
:10196000C83070F0883088F090EF980F983090F081
:1019700098EF980F983008F07AC0E3E7F0E079C06C
:10198000EBE6F0E0ABE6B0E009C0ECE6F0E0ACE698
:10199000B0E004C0EDE6F0E0ADE6B0E09C91C83008
:1019A00048F42FE130E0281B310941E050E060E0CD
:1019B00070E023C0883068F441E050E060E070E0FF
:1019C000082E04C0440F551F661F771F0A94D2F7D4
:1019D0001DC020EF280F283030F441E050E060E0D7
:1019E00070E020EF09C028EF280F283070F441E0A4
:1019F00050E060E070E028EF280F04C0440F551F4E
:101A0000661F771F2A95D2F701C041E0492B40831A
:101A10002BB3C83050F0883050F090EF980F9830CA
:101A200040F098EF980F983030F091E005C092E0C8
:101A300003C094E001C098E0922B9BBB909168009A
:101A4000C83078F0883048F020EF280F283038F080
:101A50008850883030F488E005C082E003C084E01C
:101A600001C081E0892B80936800CF910895E0E068
:101A7000F0E0983018F4A3E7B0E090CFA0E0B0E039
:101A80008DCF1F920F920FB60F9211242F933F9379
:101A90004F935F936F937F938F939F93AF93BF9376
:101AA000EF93FF93F8948DEB95E00E948D0C87EBFC
:101AB00095E00E948D0C7894FF91EF91BF91AF91CA
:101AC0009F918F917F916F915F914F913F912F9156
:101AD0000F900FBE0F901F901895CF93DF93CDB747
:101AE000DEB7C554D1090FB6F894DEBF0FBECDBF27
:101AF00080918100887F81608093810060E08CE12B
:101B00000E94562860E08BE10E94562861E08DE03B
:101B10000E94562861E08CE00E94562861E088E12E
:101B20000E94562861E089E10E9456288CE10E94BB
:101B3000AD0C8BE10E94AD0C87EC95E00E94571331
:101B40004AE050E060E070E0CE0101960E94EE15A0
:101B5000811107C068ED71E086EB96E00E94172CBA
:101B600005C064E6CE0101960E94FE16CB5BDF4FF6
:101B70000FB6F894DEBF0FBECDBFDF91CF910895B1
:101B80002F923F924F925F926F927F928F929F928D
:101B9000AF92BF92CF92DF92EF92FF920F931F937B
:101BA000CF93DF93CDB7DEB7C85AD1090FB6F894FB
:101BB000DEBF0FBECDBF4C014AE050E060E070E0F8
:101BC0009E012F5F3F4FC556DF4F39832883CB5986
:101BD000D040C9010E94EE15811107C068ED71E087
:101BE00086EB96E00E94172CD6C164E6CE010196E2
:101BF0000E94FE161E0136E4230E311C6CE170E0DB
:101C0000C1010E947E0C86E0F101ADEBB5E00190D0
:101C10000D928A95E1F76BE170E0C1010E947E0CA4
:101C200086E0F101A7EBB5E001900D928A95E1F70E
:101C3000CD56DF4F188219821A821B82C359D040B9
:101C4000AE0141575F4FC956DF4F59834883C7598B
:101C5000D040C157DF4F188219821A821B82CF5899
:101C6000D040CE0185579F4FC756DF4F9983888359
:101C7000C959D040C557DF4F188219821A821B827A
:101C8000CB58D0401F921F9285E38F9386E08F93AD
:101C900087E38F938DEB8F9386E4A82E84E6B82E8E
:101CA00089E1C82E85E3D82E13E1E12E17E2F12E4B
:101CB00006EB15E39E012D563F4F44505109BE01DE
:101CC00061577F4FC1010E94E71C61E070E0C101D4
:101CD0000E94951C00E010E02CE832E440E050E067
:101CE0006CE872ECC1010E94CF1BC157DF4F188214
:101CF00019821A821B82CF58D040B401882777FD01
:101D00008095982F0E94702F20E034E244E759E438
:101D10000E945D300E943D2FC356DF4F6883798358
:101D20008A839B83CD59D0400E9412272B013C010E
:101D30000E941E276B017C010E941227CB55DF4FAA
:101D4000688379838A839B83C55AD040C356DF4F0B
:101D5000688179818A819B81CD59D0400E94702F02
:101D6000CD56DF4F688379838A839B83C359D040E4
:101D70000F900F900F900F900F900F90812C912C3F
:101D80005401C556DF4F0881CB59D040C456DF4FB0
:101D90001881CC59D0400E94122764197509860910
:101DA0009709643671058105910598F40E94122700
:101DB000CB55DF4F288139814A815B81C55AD0409C
:101DC000621B730B840B950B603D77408105910579
:101DD00058F060E070E08DE00E94CE2760E070E097
:101DE0008CE00E94CE27D7C0D501C401C356DF4F77
:101DF000288139814A815B81CD59D040821B930B68
:101E0000A40BB50BB7FF07C0B095A0959095819531
:101E10009F4FAF4FBF4F85319F43A642B10520F082
:101E20000E9412272B013C010E941E27CF55DF4F35
:101E3000688379838A839B83C15AD040B801CE01DD
:101E400081589F4F0E94F418C957DF4F68817981EC
:101E50008A819B81C758D0400E943D2F9B01AC01D5
:101E6000CF55DF4F688179818A819B81C15AD040EB
:101E70006C197D098E099F090E945731860E971EA5
:101E8000A81EB91EC501B4010E94702FC157DF4FB3
:101E9000688379838A839B83CF58D040C1010E9495
:101EA000FC1920E030E0A901C557DF4F6881798136
:101EB0008A819B81CB58D0400E945930181634F447
:101EC00060E088E10E948F2861E005C061E088E160
:101ED0000E948F2860E089E10E948F282AE030E08C
:101EE000B501A40186EB96E00E94E42CC557DF4FB4
:101EF000C880D980EA80FB80CB58D04020E030E019
:101F0000A901C701B6010E94593018164CF420E00F
:101F100030E048EC52E4C701B6010E946A2E08C0C6
:101F2000A701960160E070E088EC92E40E94692EBF
:101F30000E943D2F7B014091C1055091C205209127
:101F4000BB053091BC05CA01821B930B97FF03C0F0
:101F500091958195910906976CF0241735071CF42B
:101F600060E070E008C0B7018CE00E94CE2760E01E
:101F700070E005C0B7018CE00E94CE27B7018DE06C
:101F80000E94CE27CF55DF4FC880D980EA80FB80E2
:101F9000C15AD04000CFC855DF4F0FB6F894DEBF0E
:101FA0000FBECDBFDF91CF911F910F91FF90EF90AA
:101FB000DF90CF90BF90AF909F908F907F906F9069
:101FC0005F904F903F902F9008952F923F924F92A5
:101FD0005F926F927F928F929F92AF92BF92CF92B9
:101FE000DF92EF92FF920F931F93CF93DF93CDB7C2
:101FF000DEB72D970FB6F894DEBF0FBECDBF8C01B4
:102000006CE170E0CE0101960E947E0C86E0FE013C
:102010003196ADEBB5E001900D928A95E1F76BE159
:1020200070E0CE0101960E947E0C86E0FE013196A2
:10203000A7EBB5E001900D928A95E1F70E941E276B
:1020400017FD07C061E088E10E948F2861E089E107
:1020500006C060E089E10E948F2860E088E10E946C
:102060008F2817FF03C01195019511090E941227AF
:102070006B017C010E9412271B012C01C801959560
:10208000879598878F830E9412276C197D098E0986
:102090009F09643F71408105910518F160E070E08F
:1020A0008CE00E94CE2760E070E08DE00E94CE2799
:1020B0002D960FB6F894DEBF0FBECDBFDF91CF9146
:1020C0001F910F91FF90EF90DF90CF90BF90AF9056
:1020D0009F908F907F906F905F904F903F902F9048
:1020E00008950E9412276219730984099509603DB9
:1020F00077408105910590F68090C1059090C205CA
:102100006090BB057090BC05940126193709C90180
:1021100037FF04C088279927821B930B41E006975D
:102120000CF440E0C301681479040CF4C40151E0DC
:102130005D87801791070CF476C0442351F02987FE
:102140003A874B870E9412276B017C014B853A85A9
:1021500029858091C1059091C2056091BB05709160
:10216000BC05860F971F97FD0196BC017595679575
:102170008F819885861797074CF450EF56035001CE
:10218000579FB00C1124A00EB11E05C05B01AA0C14
:10219000BB1CAA0CBB1CB7FC08C084E2A816B10487
:1021A00044F491E9A90EB11C07C061E9A62EB12C37
:1021B00003C054EBA52EB12C5D85511110C04423F2
:1021C00041F0681479041CF460E070E003C0B501CC
:1021D00021C0B5018CE00E94CE27B50120C0225F4E
:1021E0003F4F2D31310548F460E070E08DE00E94F2
:1021F000CE2760E070E08CE013C06814790444F4EA
:1022000060E070E08CE00E94CE2761E970E007C0DA
:1022100061E970E08CE00E94CE2760E070E08DE024
:102220000E94CE2730CF1D868ACF6CE170E08DEB07
:1022300095E00E947E0C6BE170E087EB95E00C94DA
:102240007E0C61E083E10E94562860E084E10C94FA
:1022500056284F925F926F927F928F929F92AF9289
:10226000BF92CF92DF92EF92FF92CF93DF93C5E0C0
:10227000D0E0C12CD12C76014601570160E083E10A
:102280000E948F2882E090E00E94692761E083E14C
:102290000E948F288AE090E00E94692760E083E135
:1022A0000E948F2820E137E240E050E061E084E1C5
:1022B0000E94EE2822E030E040E050E00E94B13180
:1022C000CA01B9010E94702F2DEC3CEC48EE51E49C
:1022D0000E94D52E2B013C0120E030E048E453E47D
:1022E0000E94CE2E87FF1BC020E030E0A901C30171
:1022F000B2010E945930181694F4A3019201C5014D
:10230000B4010E946A2E4B015C0120E030E040E8FD
:102310005FE3C701B6010E946A2E6B017C0162E394
:1023200070E080E090E00E944127219709F0A6CF5D
:1023300020E030E0A901C701B6010E94CE2E88231B
:1023400039F0A7019601C501B4010E94D52E04C041
:102350006FEF7FEF8FE79FE7DF91CF91FF90EF90D7
:10236000DF90CF90BF90AF909F908F907F906F90B5
:102370005F904F90089561E087E10E94562861E0E8
:102380008FE00E9456281092B300E1EBF0E08081CC
:10239000887F81608083A6EBB0E08C918F798C93ED
:1023A000A0EBB0E08C9183608C938081877F8083E9
:1023B0008C918F7380688C938C918F7C8C938081AF
:1023C000887F8160808308956F927F928F929F9221
:1023D000AF92BF92CF92DF92EF92FF920F93CF9383
:1023E000DF9300D000D0CDB7DEB76B017C0129832D
:1023F0003A834B835C830E9412274B015C01298145
:102400003A814B815C81DA01C901B695A795979510
:1024100087953C010E941227681979098A099B094E
:102420006C157D058E059F05F8F461E087E10E943B
:102430008F280093B300C3010E9469271092B30054
:102440008AE090E00E94692760E087E10E948F287F
:102450000093B300C3010E9469271092B3008AE081
:1024600090E00E946927D6CF1092B3000F900F9092
:102470000F900F90DF91CF910F91FF90EF90DF9031
:10248000CF90BF90AF909F908F907F906F90089566
:1024900061E087E10E94562861E08FE00E945628A3
:1024A00060E08FE10E945628EAE7F0E080818460D6
:1024B000808380818D7F808380818E7F8083109256
:1024C000B300E1EBF0E08081887F81608083A6EB40
:1024D000B0E08C918F798C93A0EBB0E08C9183600D
:1024E0008C938081877F80838C918F7380688C939D
:1024F0008C918F7C8C938081887F8160808308950C
:102500008FE10C94AF278EBD00000DB407FEFDCF08
:102510008EB50895CF93CFB7F8948091C6058111F9
:1025200027C0E2E8F1E08491E2E6F1E09491E82F3F
:10253000F0E0EE0FFF1FEE54FE4FA591B4918C9189
:10254000892321F461E084E00E948F2861E084E027
:102550000E9456288CB580618CBD8CB580648CBD82
:1025600061E087E00E94562861E085E00E945628DD
:102570008091C6058F5F8093C605CFBFCF91089528
:102580008091F70590E02091F805821B910908954C
:102590002091F8058091F705281750F4E22FF0E01C
:1025A000E750FA4F808190E02F5F2093F80508955F
:1025B0008FEF9FEF0895E091F8058091F705E817F8
:1025C00030F4F0E0E750FA4F808190E008958FEF0B
:1025D0009FEF08950895CF92DF92EF92FF920F93AD
:1025E0001F93CF93DF937C01CB018A012091D30508
:1025F000222389F0EB016B01C40ED51ECC15DD053D
:1026000069F06991D701ED91FC910190F081E02D85
:10261000C7010995F3CF642F0E944C14C801DF91C4
:10262000CF911F910F91FF90EF90DF90CF90089581
:10263000CF93DF931F92CDB7DEB769832091D30587
:102640002223D1F02091D405203240F021E030E067
:10265000FC013383228380E090E015C08091D50592
:10266000E82FF0E0EA52FA4F998190838F5F8093D0
:10267000D5058093D40505C061E0CE0101960E9486
:102680004C1481E090E00F90DF91CF910895FC0110
:102690001382128248EE53E060E070E04483558379
:1026A0006683778382E192E091838083089510921C
:1026B000F8051092F7051092D5051092D4050C94E8
:1026C0009713862F413208F040E269EF75E00E94CF
:1026D000B5131092F8058093F705089521E00C9446
:1026E000611381E08093D3056093F6051092D505C0
:1026F0001092D40508950C9471130F93062F21E0C6
:102700004091D40566ED75E08091F6050E94F913BD
:102710001092D5051092D4051092D3050F9108950B
:1027200061E00C947D1387EC95E00C9447131092B4
:10273000860681E0809384061092830661E081E141
:102740000E948F2861E080E10E948F28E9EBF0E091
:1027500080818E7F808380818D7F808380E28093E3
:10276000B80085E48093BC000895413208F03FC072
:10277000909186069111FCCF91E09093860620936C
:1027800084062FEF2093190610925E06240F2093E3
:102790005D069093850690918506880F892B80931E
:1027A000850680918306813041F4109283068091E2
:1027B00085068093BB0085EC01C085EE8093BC004C
:1027C000809186068130E1F380915E06841710F4D3
:1027D00040915E062FE536E0FB01D9018A2F821B6E
:1027E000841718F48D918193F9CF842F089580E098
:1027F00008950F93413208F046C0909186069111DA
:10280000FCCF92E090938606009384069FEF90930E
:10281000190610925E0640935D06FB016FE576E0B7
:10282000DB019A2F961B941718F491919D93F9CF81
:102830001092850690918506880F892B80938506D6
:1028400080918306813041F4109283068091850641
:102850008093BB0085EC01C085EE8093BC002223F1
:1028600021F0809186068230E1F3809119068F3F36
:1028700061F080911906803251F080911906803301
:1028800041F483E007C081E005C080E003C082E03E
:1028900001C084E00F910895613298F4209186067A
:1028A000243089F460933B06FC018DE396E0DC0163
:1028B0002A2F281B261718F421912D93F9CF80E099
:1028C000089581E0089582E0089585ED8093BC002D
:1028D0008091BC0084FDFCCF10928606089585ECA3
:1028E0008093BC001092860608951F920F920FB637
:1028F0000F9211242F933F934F935F936F937F9386
:102900008F939F93AF93BF93EF93FF938091B90001
:10291000887F803609F49CC068F5883209F45BC072
:1029200090F4803109F454C038F4882309F4F5C0D8
:10293000883009F44DC0F5C0883109F44CC08032AC
:1029400009F45DC0EEC0803409F468C048F48033F7
:1029500009F455C0883309F0E4C080931906A8C073
:10296000803509F44FC0883509F45DC0883409F01A
:10297000D8C0D5C0883909F4C6C0A8F4883709F48E
:1029800067C038F4883609F463C0803709F460C042
:10299000C8C0883809F4B7C0803909F45FC08038EE
:1029A00009F0BFC05BC0803B09F485C038F4803AB1
:1029B00009F466C0883A09F47EC0B3C0803C09F4CB
:1029C000A6C0883C09F4A3C0883B09F489C0A9C00B
:1029D0008091850610C090915E0680915D069817E3
:1029E00070F5E0915E0681E08E0F80935E06F0E068
:1029F000E15AF94F80818093BB0085EC85C08093BC
:102A000019068DC0E0915E0681E08E0F80935E0610
:102A10008091BB00F0E0E15AF94F808390915E060F
:102A200080915D066DC0E0915E0681E08E0F80931F
:102A30005E068091BB00F0E0E15AF94F80838091FF
:102A4000840681116CC081E08093830684EA60C0B3
:102A500083E08093860610921A06CFCF80911A06E3
:102A6000803208F050C0E0911A0681E08E0F80930A
:102A70001A068091BB00F0E0E55EF94F8083BDCF80
:102A800080911A06803230F4E0911A06F0E0E55E9B
:102A9000F94F10820E94651460911A0670E0E0916F
:102AA0007F06F09180068BE196E0099510921A0658
:102AB0000E946F1436C084E08093860610923C0614
:102AC00010923B06E0918106F09182060995809173
:102AD0003B06811105C081E080933B0610923D06C4
:102AE000E0913C0681E08E0F80933C06F0E0E35CD1
:102AF000F94F80818093BB0090913C0680913B060A
:102B0000981708F47ACF85E88093BC000AC085EC5A
:102B10008093BC001092860604C0109219060E9491
:102B20006514FF91EF91BF91AF919F918F917F912C
:102B30006F915F914F913F912F910F900FBE0F902A
:102B40001F9018951F93CF93DF931F92CDB7DEB7D9
:102B5000162F69E670E087EC95E049830E947B13AD
:102B6000612F87EC95E00E9418134981642F87EC50
:102B700095E00E94181387EC95E00F90DF91CF91BC
:102B80001F910C949013CF93C62F69E670E087ECE9
:102B900095E00E947B136C2F87EC95E00E94181340
:102BA00087EC95E00E94901369E670E087EC95E071
:102BB0000E947B1341E050E069E670E087EC95E00D
:102BC0000E946E1387EC95E00E94C812C82F87EC14
:102BD00095E00E9490138C2FCF910895EF92FF9271
:102BE0000F931F93CF93DF93EC018B017A01188E23
:102BF000198E1A8E1B8E1C8E1D8E1E8E1F8E18A275
:102C000019A21AA21BA218AA1CA21DA21EA21FA2D0
:102C100018A619A61AA61BA61CA61DA61EA61FA6A8
:102C200019AA1AAA1BAA1CAA87EC95E00E9457139E
:102C30006FE0CE010E94C315833D09F041C0A7019A
:102C400084E0440F551F8A95E1F74F6060E2CE01A2
:102C50000E94A21540E061E2CE010E94A21548E068
:102C600062E2CE010E94A215402F4295407F63E2AE
:102C7000CE010E94A2150130110571F0023011053C
:102C800081F0012BB1F489E29CE5AFE0BCE38DABB0
:102C90009EABAFABB8AF0DC049E25CE56FE87CE33B
:102CA00004C049E25CE56FE87DE34DAB5EAB6FAB22
:102CB00078AF40E064E2CE010E94A21581E001C03D
:102CC00080E0DF91CF911F910F91FF90EF900895D9
:102CD0004F925F926F927F928F929F92AF92BF922C
:102CE000CF92DF92EF92FF920F931F93CF93DF93D8
:102CF0008C01EB0169E670E087EC95E00E947B13A4
:102D0000E091C705F091C8050190F081E02D68EAD7
:102D100087EC95E0099587EC95E00E94901346E0DA
:102D200050E069E670E087EC95E00E946E1387EC56
:102D300095E00E94C0120697D4F387EC95E00E94BC
:102D4000C812582E87EC95E00E94C812482E87ECD6
:102D500095E00E94C812782E87EC95E00E94C81278
:102D6000682E87EC95E00E94C812B82E87EC95E09B
:102D70000E94C812A82E942C812C8528B401882783
:102D800077FD8095982F0E94702F688379838A83BE
:102D90009B83D62CC12CC728B601882777FD809548
:102DA000982F0E94702F6C837D838E839F83FA2CD3
:102DB000E12CEB28B701882777FD8095982F0E949A
:102DC000702F688779878A879B878CE0FE01D801FE
:102DD00001900D928A95E1F7C801DF91CF911F9183
:102DE0000F91FF90EF90DF90CF90BF90AF909F90AA
:102DF0008F907F906F905F904F9008952F923F92A9
:102E00004F925F926F927F928F929F92AF92BF92FA
:102E1000CF92DF92EF92FF920F931F93CF93DF93A6
:102E2000CDB7DEB7A4970FB6F894DEBF0FBECDBF07
:102E30001C01062F81E0D101D0968C9310E01D8EED
:102E40001E8E1F8E18A2198E1A8E1B8E1C8E1D8A26
:102E50001E8A1F8A188E198A1A8A1B8A1C8A812C3C
:102E6000912C540124013501101709F47EC0B101E1
:102E7000CE0101960E946816F101C080D180E280E7
:102E8000F380A7019601C301B2010E946A2E2B01B3
:102E90003C01D10114968D919D910D90BC91A02D76
:102EA0008D879E87AF87B88B9C01AD01C501B401AA
:102EB0000E946A2E4B015C01D10118968D919D9163
:102EC0000D90BC91A02D89A39AA3ABA3BCA39C0198
:102ED000AD0169897A898B899C890E946A2E698BE8
:102EE0007A8B8B8B9C8BA7019601C701B6010E9440
:102EF0005D309B01AC016D897E898F89988D0E9420
:102F00006A2E6D8B7E8B8F8B988F2D853E854F859E
:102F10005889CA01B9010E945D309B01AC01698DDD
:102F20007A8D8B8D9C8D0E946A2E698F7A8F8B8F04
:102F30009C8F29A13AA14BA15CA1CA01B9010E94B1
:102F40005D309B01AC016D8D7E8D8F8D98A10E94AF
:102F50006A2E6D8F7E8F8F8F98A365E070E080E082
:102F600090E00E9441271F5F7FCF612F70E080E0DB
:102F700090E00E94702F6B017C019B01AC01C301AA
:102F8000B2010E94D52E2B013C01F101608F718F9F
:102F9000828F938FA7019601C501B4010E94D52E9F
:102FA0006D877E878F87988BD1015C966D937D931B
:102FB0008D939C935F97A701960169897A898B8984
:102FC0009C890E94D52E4B015C01F10160A371A385
:102FD00082A393A3A70196016D897E898F89988D1D
:102FE0000E94D52E698B7A8B8B8B9C8BA3019201CF
:102FF000C301B2010E945D309B01AC0169897A89ED
:103000008B899C890E94692E0E94CA30D101D99671
:103010006D937D938D939C93DC97A7019601698DA9
:103020007A8D8B8D9C8D0E94D52E2B013C012D8598
:103030003E854F855889CA01B9010E945D309B01C8
:10304000AC01C301B2010E94692E0E94CA30F10195
:10305000FD966083718382839383A70196016D8DB2
:103060007E8D8F8D98A10E94D52E6B017C01A501CC
:103070009401C501B4010E945D309B01AC01C70100
:10308000B6010E94692E0E94CA30F101EF5BFF4F2A
:103090006083718382839383F101C1A8D2A8E3A8DE
:1030A000F4A820E030E0A901C701B6010E94593020
:1030B0001816FCF4C701B6010E94422FC101A49664
:1030C0000FB6F894DEBF0FBECDBFDF91CF911F9139
:1030D0000F91FF90EF90DF90CF90BF90AF909F90B7
:1030E0008F907F906F905F904F903F902F900C94B7
:1030F0009218A4960FB6F894DEBF0FBECDBFDF9135
:10310000CF911F910F91FF90EF90DF90CF90BF90E4
:10311000AF909F908F907F906F905F904F903F9077
:103120002F900895CF92DF92EF92FF921F93CF934B
:10313000DF93EC01162F6623C9F188A9811104C021
:1031400062E3CE010E94FE16612F70E080E090E005
:103150000E94702F6B017C019B01AC0169AD7AADBF
:103160008BAD9CAD0E945D306CA37DA38EA39FA30D
:10317000A7019601FE01FD96608171818281938194
:103180000E945D3068A779A78AA79BA7A70196012F
:10319000FE01EF5BFF4F60817181828193810E940C
:1031A0005D306CA77DA78EA79FA70CC01CA21DA297
:1031B0001EA21FA218A619A61AA61BA61CA61DA60B
:1031C0001EA61FA6612F70E080E090E00E946E2F87
:1031D00069AB7AAB8BAB9CABDF91CF911F91FF902A
:1031E000EF90DF90CF900895AF92BF92CF92DF9291
:1031F000EF92FF920F931F93CF93DF93CDB7DEB77C
:103200002C970FB6F894DEBF0FBECDBF5C018B01CB
:10321000CE0101960E946816F80180A9C5A8D6A81B
:10322000E7A8F0AC882399F1208D318D428D538D24
:1032300060817181828193810E94692EA70196012C
:103240000E945D30F8016487758786879787248D93
:10325000358D468D578D64817581868197810E9459
:10326000692EA70196010E945D30F801608B718B79
:10327000828B938B20A131A142A153A160857185DE
:10328000828593850E94692EA701960121C0A7011E
:103290009601F80160817181828193810E945D3085
:1032A000F8016487758786879787A70196016481EF
:1032B0007581868197810E945D30F801608B718BEA
:1032C000828B938BA701960160857185828593859A
:1032D0000E945D30F801648B758B868B978B20E0A4
:1032E00030E0A901F80161A972A983A994A90E94FB
:1032F000593018160CF066C0F801C484D584E684F1
:10330000F78420E030E0A901C701B6010E945930DE
:10331000181624F0C701B601905802C0C701B601C3
:10332000F80124A135A146A157A10E94CE2E87FF06
:1033300005C0F8011486158616861786F801C08820
:10334000D188E288F38820E030E0A901C701B60106
:103350000E945930181624F0C701B601905802C0D7
:10336000C701B601F80120A531A542A553A50E94C9
:10337000CE2E87FF05C0F801108A118A128A138A9F
:10338000F801C488D588E688F78820E030E0A901F4
:10339000C701B6010E945930181624F0C701B601C2
:1033A000905802C0C701B601F80124A535A546A56D
:1033B00057A50E94CE2E87FF05C0F801148A158AF2
:1033C000168A178A8CE0F8013C96D50101900D927F
:1033D0008A95E1F7C5012C960FB6F894DEBF0FBEB3
:1033E000CDBFDF91CF911F910F91FF90EF90DF90B4
:1033F000CF90BF90AF9008952F923F924F925F92DF
:103400006F927F928F929F92AF92BF92CF92DF92F4
:10341000EF92FF920F931F93CF93DF93CDB7DEB759
:103420002B970FB6F894DEBF0FBECDBF9B878A8760
:10343000DC01D896BC91B983B11102C01982E2C0F7
:103440000E9412276A837B838C839D83EA85FB8598
:1034500080A191A1A2A1B3A14A815B816C817D81F0
:10346000481B590B6A0B7B0B84A595A5A6A5B7A590
:10347000481759076A077B0708F3028CF38DE02D84
:1034800080809180A280B380AA85BB855E96ED91F5
:10349000FC915F97A5019401608171818281938184
:1034A0000E94692E2B013C01EA85FB852089318928
:1034B000428953890E945D30AA85BB8594962D91DF
:1034C0003D914D915C9197970E946A2E6B017C0112
:1034D000EA85FB8564A375A386A397A324A835A8D2
:1034E00006A917A99101A8010E94593018161CF4C9
:1034F000C101D80118C0AA85BB85D0968D919D9138
:103500000D90BC91A02D8E839F83A887B9879C01C5
:10351000AD01C701B6010E94CE2E87FF0AC08E8181
:103520009F81A885B985EA85FB8584A395A3A6A379
:10353000B7A3AA85BB851C962D913D914D915C91B9
:103540001F97C301B2010E945D30EA85FB8524A16B
:1035500035A146A157A10E946A2E6B017C01AA8564
:10356000BB8598962D913D914D915C919B97C5019E
:10357000B4010E94692EEA85FB8524893589468934
:1035800057890E945D309B01AC01C701B6010E94C2
:10359000692E6B017C019101A8010E945930181617
:1035A000BCF0AA85BB85D0962C90D097D1963C9044
:1035B000D197D2960C91D297D3961C919101A801E4
:1035C000B601C7010E94CE2E87FD02C016018701F9
:1035D000AA85BB855C96ED91FC915D97C101D801F0
:1035E00080839183A283B383EA85FB8580A691A61D
:1035F000A2A6B3A68A819B81AC81BD8180A391A341
:10360000A2A3B3A389812B960FB6F894DEBF0FBE99
:10361000CDBFDF91CF911F910F91FF90EF90DF9081
:10362000CF90BF90AF909F908F907F906F905F9062
:103630004F903F902F9008952F923F924F925F921C
:103640006F927F928F929F92AF92BF92CF92DF92B2
:10365000EF92FF920F931F93CF93DF9300D000D090
:10366000CDB7DEB71C012A013B014801590120E01A
:1036700030E0A901C301B2010E94CE2E87FD78C0BF
:1036800020E030E0A901C501B4010E94CE2E87FDE3
:103690006FC020E030E0A901C701B6010E94CE2E24
:1036A00087FD66C0F101408251826282738284820A
:1036B0009582A682B782C086D186E286F38664A50B
:1036C00075A586A597A50E946E2F20E030E04AE7F9
:1036D00054E40E94D52E69837A838B839C83F10105
:1036E00044865586668677869B01AC01C501B40188
:1036F0000E945D304B015C01F101608B718B828B0C
:10370000938B29813A814B815C81C701B6010E946C
:10371000D52E6B017C01F101648B758B868B978BA9
:10372000808D918D019721F5A301920160E070E0F9
:10373000CB010E94692EF101648775878687978780
:10374000A501940160E070E0CB010E94692EF101B7
:10375000608B718B828B938BA701960160E070E088
:10376000CB010E94692EF101648B758B868B978B40
:103770000F900F900F900F90DF91CF911F910F91AD
:10378000FF90EF90DF90CF90BF90AF909F908F9081
:103790007F906F905F904F903F902F9008952F9261
:1037A0003F924F925F926F927F928F929F92AF92D1
:1037B000BF92CF92DF92EF92FF920F931F93CF931E
:1037C000DF93EC016A017B0148015901A9019801CD
:1037D000C701B6010E94593087FF4EC0C8AAD9AAB6
:1037E000EAAAFBAA8CAA9DAAAEAABFAA88AD882382
:1037F00009F442C02C8C3D8CF101408051806280E4
:103800007380A5019401C301B2010E9459301816BA
:1038100034F4F10180829182A282B3820DC0A701AB
:103820009601C301B2010E94CE2E87FF05C0F101AF
:10383000C082D182E282F3828CA09DA0AEA0BFA004
:10384000CCA8DDA8EEA8FFA8A7019601C501B40188
:103850000E945930181664F0C8A8D9A8EAA8FBA895
:10386000A7019601C501B4010E94CE2E87FF04C0B6
:10387000CCA2DDA2EEA2FFA2DF91CF911F910F910A
:10388000FF90EF90DF90CF90BF90AF909F908F9080
:103890007F906F905F904F903F902F9008958F9200
:1038A0009F92AF92BF92CF92DF92EF92FF92CF930F
:1038B000DF93EC01EC8DFD8DC080D180E280F38040
:1038C000CCA2DDA2EEA2FFA2EA8DFB8D80819181C8
:1038D000A281B38188A799A7AAA7BBA78CA89DA8F6
:1038E000AEA8BFA8A5019401C701B6010E94593036
:1038F000181664F088A899A8AAA8BBA8A5019401E5
:10390000C701B6010E94CE2E87FF04C08CA29DA2E3
:10391000AEA2BFA2DF91CF91FF90EF90DF90CF904A
:10392000BF90AF909F908F9008951F93CF93DF9398
:10393000EC0111E06130710509F010E088AD91E013
:103940008927181303C0CE010E944F1C18AFDF91C6
:10395000CF911F9108950F931F93CF93DF93EC01A5
:103960008B0188AD882361F1888D998D681779075F
:1039700039F12C853D854E855F8560E070E0CB0197
:103980000E94692E6C877D878E879F872889398959
:103990004A895B8960E070E0CB010E94692E688BE8
:1039A000798B8A8B9B8B2C893D894E895F8960E05E
:1039B00070E0CB010E94692E6C8B7D8B8E8B9F8B70
:1039C000198F088FDF91CF911F910F9108954F921A
:1039D0005F926F927F928F929F92AF92BF92CF929F
:1039E000DF92EF92FF920F931F93CF93DF9300D05C
:1039F00000D0CDB7DEB74C0127013801A982BA82C9
:103A0000CB82DC82FC01558F448F738F628F378F9E
:103A1000268F10AE10AA11AA12AA13AA80E090E075
:103A2000AFE7B3E484AB95ABA6ABB7AB84E690E06D
:103A3000A0E0B0E084A795A7A6A7B7A76B8D7C8D63
:103A4000C4010E94AB1CCF88D88CE98CFA8C098108
:103A50001A812B813C81B301A201C4010E941C1B6D
:103A60000E941227F40144A455A466A477A4641903
:103A700075098609970960A371A382A393A30F9088
:103A80000F900F900F90DF91CF911F910F91FF90AA
:103A9000EF90DF90CF90BF90AF909F908F907F90EE
:103AA0006F905F904F900895CF93DF93EC018885DE
:103AB0009985009711F00E9488328E8187FD05C09C
:103AC00060E0DF91CF910C945628DF91CF9108955B
:103AD000CF93DF93EC018E8187FD07C061E00E94E8
:103AE000562860E08E810E948F2881E08983DF91D3
:103AF000CF910895EF92FF920F931F93CF93DF938F
:103B0000EC017B0188859985009711F00E9488322D
:103B10009D858A85981303C083E090E002C084E00D
:103B200090E08E9D80018F9D100D9E9D100D1124A3
:103B30001D830C83C8010E94F03199878887009704
:103B400041F0A80160E070E00E947433FB82EA82D9
:103B500004C01D821C821B821A82DF91CF911F91AB
:103B60000F91FF90EF900895FC0121E095858285EB
:103B7000981320E0CB0136E0969587953A95E1F7CA
:103B8000482F43704587CB0154E0969587955A9509
:103B9000E1F7382F33703287CB019695879596954C
:103BA000879583708387862F8370848781E06F3F3A
:103BB000710511F008F080E0808380859185892B64
:103BC00051F091E0431390E0921729F062817381E4
:103BD000CF010C947A1D0895CF92DF92EF92FF925D
:103BE0000F931F93CF93DF93CDB7DEB729970FB60F
:103BF000F894DEBF0FBECDBF8C01DC0118968D910D
:103C00009C911997892B09F41DC10E941E27F80168
:103C1000C684D784E088F1886C197D098E099F09D4
:103C2000623371058105910580F3F8948481958153
:103C30009A838983A085B1857D01EFEFEE1AFE0A94
:103C40008C918987D8018C9152960D90BC91A02DB2
:103C5000882309F4BDC01D82AB32B10509F059C0FB
:103C60009BB1F8018489982B98879BB18095892313
:103C70008F838F818E83898587FF02C088858E839D
:103C800058856F8149853E812D8189819A81D7012F
:103C90005BB9262F3BB900C046FD252F6BB900C08C
:103CA0005BB9362F2BB900C045FD352F6BB900C06D
:103CB0005BB9262F3BB900C044FD252F6BB900C06E
:103CC0005BB9362F2BB900C043FD352F6BB900C04F
:103CD0005BB9262F3BB900C042FD252F6BB900C050
:103CE0005BB9362F2BB900C041FD352F6BB900C031
:103CF0005BB9262F3BB900C040FD252F6BB901975A
:103D00005BB9362F2BB94D9147FD352F6BB901F6B5
:103D10005BC0989709F08CC098B1F8018489982B02
:103D2000988798B1809589238F838F818E83898529
:103D300087FF02C088858E8358856F8149853E81C3
:103D40002D8189819A81D70158B9262F38B900C0B1
:103D500046FD252F68B900C058B9362F28B900C0D4
:103D600045FD352F68B900C058B9262F38B900C0B5
:103D700044FD252F68B900C058B9362F28B900C0B6
:103D800043FD352F68B900C058B9262F38B900C097
:103D900042FD252F68B900C058B9362F28B900C098
:103DA00041FD352F68B900C058B9262F38B900C079
:103DB00040FD252F68B9019758B9362F28B94D9184
:103DC00047FD352F68B901F649873E832D832EC004
:103DD0009C91F8018489982B98879C9180958923E0
:103DE0008F838F818C8388E08B8358856F81498591
:103DF0003B812C8189819A81F7015C9347FD252FB6
:103E00002C93262F3A9531F0441F6C9300C000C0CC
:103E100000C0F3CF6C93000038E04191019769F73F
:103E2000F801B38BA28B49873B832C839A838983C8
:103E300078940E941E27D8011E966D937D938D93D2
:103E40009C93519729960FB6F894DEBF0FBECDBF55
:103E5000DF91CF911F910F91FF90EF90DF90CF9066
:103E600008951F93CF93DF93EC01162F8981882348
:103E700031F08E8187FD03C060E00E9456281E83CA
:103E80008981882341F061E0812F0E94562860E0FB
:103E9000812F0E948F28812F90E0FC01E258FE4F75
:103EA000E491F0E0EE0FFF1FE855FE4F25913491AD
:103EB0003B8B2A8BFC01E25AFE4F84918C8BDF9165
:103EC000CF911F910895EF92FF920F931F93CF937D
:103ED000DF931F92CDB7DEB77C018B01FC0111820D
:103EE00017821186108616861786108A118AB901E4
:103EF00049830E94B41DB801C7010E947A1D4981FF
:103F0000642FC7010F90DF91CF911F910F91FF9008
:103F1000EF900C94311FCF92DF92EF92FF920F93AC
:103F20001F93CF93DF93FC018281938168177907F8
:103F300008F04DC0CA01AA27BB27182FC32ED42EC4
:103F4000E52EFF24DC2DC22F0781002361F0809F26
:103F5000C0011124192FC09E60011124DD2D209F66
:103F6000C0011124C92FF5848285A085B185F8127E
:103F700008C0CB01880F991F860F971F8A0F9B1FC0
:103F800017C0CB01880F991F880F991F8A0F9B1F9D
:103F9000452F552766277727DC01AF0DB11D00237C
:103FA00029F0409F90011124232F01C0242F2C932E
:103FB0002285DC01A20FB11D1C932385DC01A20F19
:103FC000B11DDC932485FC01E20FF11DC083DF915C
:103FD000CF911F910F91FF90EF90DF90CF900895B8
:103FE000962F50E060E070E0592B682BCB01BA01AE
:103FF00008952091C505222399F03FB7F8942091A8
:10400000C505213059F42DB32093C3054DB320913C
:10401000C405209524232DBB3FBF02C03093C305A8
:104020008CBD9DBD08958091C505882361F09FB723
:10403000F8942091C5058091C305213019F48DBBFA
:104040009FBF08958FBF08957F928F929F92AF92E6
:10405000BF92CF92DF92EF92FF920F931F93CF9375
:10406000DF936C01162F942EE9011E77106883E50B
:1040700090E00E94F91F60E0F60184850E948F287D
:104080009A94812F0E9483127C2EEC2EFD2EAA245E
:10409000A394B12C8E2D8719891528F581111AC08A
:1040A0000023C1F0802F812C883048F49501082E20
:1040B00001C0220F0A94EAF7822A8F5FF5CF812F81
:1040C0000E948312982D9095288192238821982B05
:1040D000988305C0812F0E948312F7018083FFEF30
:1040E000EF1AFF0AD7CFC90DD11D80E00E948312BD
:1040F000888361E0F60184850E948F28DF91CF914B
:104100001F910F91FF90EF90DF90CF90BF90AF90F5
:104110009F908F907F900C941320FC0164874587BB
:104120000895EF92FF921F93CF93DF931F92CDB725
:10413000DEB77C01162F83E590E049830E94F91FCA
:1041400060E0F70184850E948F28812F8E770E947E
:1041500083124981842F0E94831261E0F7018485D4
:104160000E948F280F90DF91CF911F91FF90EF90C9
:104170000C941320CF92DF92EF92FF920F931F9334
:10418000CF93DF9300D0CDB7DEB78C01E62EF42EAF
:1041900083E590E029833A830E94F91F60E0F801EB
:1041A00084850E948F288E2D8E770E94831229810C
:1041B000E22EC22E3A81D32E8C2D8E198F1530F41B
:1041C000F60181916F010E948312F6CF61E0F80140
:1041D00084850E948F280F900F90DF91CF911F91BF
:1041E0000F91FF90EF90DF90CF900C9413201F93CE
:1041F000CF93DF93EC01162F83E590E00E94F91F27
:1042000060E08C850E948F28812F8E7780680E94C5
:10421000831280E00E948312182F61E08C850E9437
:104220008F280E941320812FDF91CF911F91089535
:104230000F9341110E9424200F910895EF92FF9255
:104240001F93CF93DF931F92CDB7DEB77C01162F5C
:1042500049830E94F7204981482B612FC7010F90A5
:10426000DF91CF911F91FF90EF900C949120EF92EE
:10427000FF921F93CF93DF931F92CDB7DEB77C01E0
:10428000162F49830E94F720498140954823612FCA
:10429000C7010F90DF91CF911F91FF90EF900C9489
:1042A0009120DF92EF92FF920F931F93CF93DF93B2
:1042B000EC018B01D42E790140E062E00E94912054
:1042C00044E06AE0CE010E94912040E864E1CE0122
:1042D0000E941E2198014D2D62E1CE010E94BA205C
:1042E00043E062E0CE010E94912008E813E16AE019
:1042F000CE010E94F72082FD06C001501109B9F7D6
:1043000083E090E013C040E062E0CE010E94912083
:1043100064E4CE010E94F720F701808362E4CE01BD
:104320000E94F720F701818380E090E0DF91CF9138
:104330001F910F91FF90EF90DF900895CF93DF933F
:10434000EC014FE062E00E94912062E370E080E0C7
:1043500090E00E94412762E0CE010E94F72084FD98
:10436000FACFDF91CF910895CF93DF93EC0168E20C
:104370000E94F720982F9370933041F0482F4360AC
:1043800068E2CE01DF91CF910C949120DF91CF9123
:104390000895CF93DF93EC0161E08C850E9456284D
:1043A00061E08C850E948F2861E08D850E945628EF
:1043B0008D850E94C528892B59F461E08D850E9466
:1043C0008F2862E370E080E090E00E94412703C004
:1043D000CE010E949E2140E864E5CE010E9491201A
:1043E00049EA66E5CE010E94912043E068E5CE01EE
:1043F0000E94912048EE6AE5CE010E94912040E49F
:104400006AE2CE010E9491204DE362E2CE010E9459
:104410009120CE01DF91CF910C94B4212F923F9245
:104420005F926F927F928F929F92AF92BF92CF9244
:10443000DF92EF92FF920F931F93CF93DF9300D001
:1044400000D0CDB7DEB73C01962E542E302E082D6D
:10445000A114B10419F0F501408101C040E0242EFF
:10446000F0E10F9F200C112440E062E0C3012B8398
:104470003C830E9491204FE768E0C3010E94912095
:1044800040E864E1C3010E941E212B813C81432D41
:1044900062E1C3010E94BA20422D6AE1C3010E9479
:1044A0009120492D62E0C3010E9491208CE0981276
:1044B00005C040E86AE1C3010E941E2190ED292E4B
:1044C00097E0392E68E0C3010E94F720982F9521CC
:1044D00039F480FD62C0E1E02E1A310899F75DC021
:1044E0006CE0C3010E94F720982E837109F057C039
:1044F000E114F104F1F0C114D104D9F064E1C30175
:104500000E94F720482FF6018081841708F449C0E3
:104510004083970162E1C3010E94182168E1C30151
:104520000E94F720182F1770A114B10411F0F501A3
:10453000108393FC38C0E114F104B9F1C114D10423
:10454000A1F1888D882389F1F6014081413019F469
:10455000143019F420C0423010F487E027C0111144
:10456000FCCF42509E012F5F3F4FB701C3010E9415
:1045700051210097E1F4F6018081E80EF11CF7016A
:104580003297908189819813E8CF319690818A8102
:104590009813E3CF0AC08FEF09C083E007C081E022
:1045A00005C084E003C082E001C080E090E00F908D
:1045B0000F900F900F90DF91CF911F910F91FF906F
:1045C000EF90DF90CF90BF90AF909F908F907F90B3
:1045D0006F905F903F902F9008958F92AF92BF920F
:1045E000CF92DF92EF92FF920F931F93AF928C2C9A
:1045F000570168017901042F9B0140E36CE00E94A0
:104600000E220F901F910F91FF90EF90DF90CF90AF
:10461000BF90AF908F9008954F925F926F927F926C
:104620008F929F92AF92CF92EF92FF920F931F9330
:10463000CF93DF9300D0CDB7DEB73C016A832A0168
:1046400049014115510531F1F9018081823010F1A4
:1046500040E86CE1C3010E94372187E08983A12CE7
:10466000C12CCE0101967C018401920141E0BE0182
:104670006E5F7F4FC3010E94ED22009779F4F40131
:104680008081823049F481E090E02981211106C0C7
:1046900080E004C084E001C081E090E00F900F90C2
:1046A000DF91CF911F910F91FF90EF90CF90AF903E
:1046B0009F908F907F906F905F904F9008959A0198
:1046C000AB0166E20C940C232F923F924F925F92C3
:1046D0006F927F928F929F92AF92BF92CF92DF9212
:1046E000EF92FF920F931F93CF93DF93CDB7DEB777
:1046F0002D970FB6F894DEBF0FBECDBF3C012B0146
:10470000B42E40E54B1508F4E6C040E86CE10E9489
:1047100037212224239482E0281691F093E0291671
:10472000E1F0A1E02A12DBC083E98983BB20D1F04C
:1047300041E0F2018081853008F440E0D12C17C0BF
:1047400085E98983BB2081F041E0D2018C918830DA
:1047500008F440E073E0D72E0AC087E9898366E059
:10476000D62E04C0D12C02C053E0D52E40E05B2DE4
:10477000B8EFDB9E500D112457FD50E0442321F08B
:1047800088E88B8373E001C072E091E0852F877029
:1047900009F490E0852F859585958595890F21F4FD
:1047A000442311F1585F20C0442311F063E001C09D
:1047B00064E0861708F4682F80E090E092012D0DE8
:1047C000311DE72FE80FA1E0B0E0AC0FBD1FAE0F29
:1047D000B11DFD01D901A80FB91F1196AC91A0839D
:1047E0000196861770F3DCCF43E0342E50320CF480
:1047F00057C0B0E7BA838C819B8189279D81892727
:104800009E8189278F839E01285F3F4F47E0BE012D
:104810006F5F7F4FC3015D870E9451215D850097C7
:1048200009F0ACC01B863A86FE0137964F0179E04D
:104830000BC0780F88248394912C8C0E9D1E880EBB
:10484000911C87E0821B8A87CB844C2D4295407F48
:104850004C0D6AE1C3015D877C870E949120A12CE9
:10486000CE010B967C018E01065F1F4F94017C8563
:10487000472FBE016F5F7F4FC3010E94ED225D8510
:104880008230910509F56CE1C3010E94F7205D8536
:1048900085FD23C052301CF58B8182608B8352E0F2
:1048A000952F97709B87252F25952595259582E037
:1048B000820F392FF0E18F9F300D11243A8371E080
:1048C0009111B7CF70E0B5CF009709F057C05032C3
:1048D00094F450E28ECF86E00CC082E00AC085E0FE
:1048E00008C0F2018387822D880F820D8F5F80833D
:1048F00080E090E043C08B81883819F052E044E0BA
:1049000002C053E043E080E090E092012D0D311DA4
:10491000F901E80FF91F652F680FA1E0B0E0AC0FB7
:10492000BD1FA60FB11D6C9161830196841780F3A2
:104930008A858330F9F48B8581111CC09E012D5F1F
:104940003F4F41E0B401C3010E9451210097B1F4EF
:104950009B81D40111968C91119798130DC09C8165
:1049600012968C911297981307C08C9182FFB9CF41
:104970002394D1CE81E0BDCF87E0BBCF2D960FB67B
:10498000F894DEBF0FBECDBFDF91CF911F910F9185
:10499000FF90EF90DF90CF90BF90AF909F908F905F
:1049A0007F906F905F904F903F902F9008958F92DF
:1049B0009F92AF92CF92EF92FF920F931F93CF935C
:1049C000DF9300D000D0CDB7DEB74C0180E58983FE
:1049D0001A829E012D5F3F4F42E0BE016F5F7F4F05
:1049E000C4010E9451210097C1F4A12CC12CE12CDB
:1049F000F12C00E010E020E030E044E0BE016F5F09
:104A00007F4FC4010E94ED228330910521F0009771
:104A100021F481E001C080E090E00F900F900F90B2
:104A20000F90DF91CF911F910F91FF90EF90CF905A
:104A3000AF909F908F9008958F92AF92BF92CF9238
:104A4000DF92EF92FF920F931F93CF93DF93CDB737
:104A5000DEB72C970FB6F894DEBF0FBECDBFF801BE
:104A600069834A8389019E012D5F3F4FAE01475FF5
:104A70005F4FD8016D918D01D9016D939D01A417F0
:104A8000B507B9F72181298722812A8723812B87BE
:104A900024812C871F92812CA12CB12CC12CD12CCC
:104AA000E12CF12C0CE09E012F5F3F4F40E16EE0C6
:104AB0000E940E220F902C960FB6F894DEBF0FBE08
:104AC000CDBFDF91CF911F910F91FF90EF90DF90BD
:104AD000CF90BF90AF908F90089548E060E10C9424
:104AE00037218F929F92AF92CF92EF92FF920F93C6
:104AF0001F93CF93DF934C01EA0189012097E9F0DE
:104B0000F90180818231C8F080E3888369839A014A
:104B10002E5F3F4F42E0BE01C4010E945121009729
:104B200071F4AA24A394C12CE12CF12C9E0144E041
:104B3000BE01C4010E94ED2202C084E090E0DF913A
:104B4000CF911F910F91FF90EF90CF90AF909F90DA
:104B50008F900895CF936EE60E94F720C82F69E2E8
:104B600071E086EB96E00E94C32B40E150E06C2F91
:104B700086EB96E00E94032DC03969F028F4C8380E
:104B800081F46EE171E00FC0C13941F0C23949F4DE
:104B900066E071E008C066E171E005C06EE071E0BA
:104BA00002C069EF70E086EB96E00E94052CC150D0
:104BB000CE3F38F066EB70E086EB96E0CF910C9438
:104BC000052CCF910895CF93DF9300D01F92CDB7DE
:104BD000DEB722E02B83AE014D5F5F4FBE016F5FFA
:104BE0007F4F0E945F23009731F021E0029709F088
:104BF00020E0822F01C081E00F900F900F90DF9195
:104C0000CF91089540E0BC010E94642321E0892BEC
:104C100009F020E0822F08951F920F920FB60F9295
:104C200011242F933F934F935F936F937F938F93B1
:104C30009F93AF93BF93EF93FF938091880687FF75
:104C400005C010928500109284001AC02091880639
:104C5000332727FD30958091870690E02817390784
:104C60007CF480918806992787FD9095FC01EE0FD2
:104C7000FF1FE80FF91FE757F94F808186FD15C028
:104C8000809188068F5F809388062091880633275D
:104C900027FD30958091870690E028173907BCF4EE
:104CA000809188068C305CF112C08091880699272B
:104CB00087FD9095FC01EE0FFF1FE80FF91FE757E6
:104CC000F94F808160E08F730E948F28D9CF809147
:104CD000840090918500049680329E4418F480E20E
:104CE0009EE405C080918400909185000496909385
:104CF0008900809388008FEF8093880638C02091C8
:104D000084003091850080918806992787FD9095D1
:104D1000FC01EE0FFF1FE80FF91FE757F94F8181E4
:104D20009281820F931F90938900809388008091D5
:104D30008806992787FD9095FC01EE0FFF1FE80F6D
:104D4000F91FE757F94F808186FF11C080918806CF
:104D5000992787FD9095FC01EE0FFF1FE80FF91FC3
:104D6000E757F94F808161E08F730E948F28FF9190
:104D7000EF91BF91AF919F918F917F916F915F91D3
:104D80004F913F912F910F900FBE0F901F9018954C
:104D90001F920F920FB60F9211242F933F938F9370
:104DA0009F93AF93BF938091AE069091AF06A09171
:104DB000B006B091B1063091AD0626E0230F2D3735
:104DC00020F40296A11DB11D05C029E8230F03960A
:104DD000A11DB11D2093AD068093AE069093AF0642
:104DE000A093B006B093B1068091B2069091B3063D
:104DF000A091B406B091B5060196A11DB11D809396
:104E0000B2069093B306A093B406B093B506BF91D3
:104E1000AF919F918F913F912F910F900FBE0F9067
:104E20001F9018952FB7F8946091AE067091AF0659
:104E30008091B0069091B1062FBF08953FB7F894C6
:104E40008091B2069091B306A091B406B091B506D8
:104E500026B5A89B05C02F3F19F00196A11DB11DD5
:104E60003FBF6627782F892F9A2F620F711D811DF2
:104E7000911D43E0660F771F881F991F4A95D1F750
:104E80000895CF92DF92EF92FF92CF93DF936B0161
:104E90007C010E941E27EB01C114D104E104F1043E
:104EA00089F00E94682E0E941E276C1B7D0B683EB5
:104EB000734090F381E0C81AD108E108F108C851A5
:104EC000DC4FEACFDF91CF91FF90EF90DF90CF9052
:104ED00008958130910539F0029729F0880F991FC4
:104EE00001970197F1F70895789484B5826084BDA5
:104EF00084B5816084BD85B5826085BD85B58160DE
:104F000085BDEEE6F0E0808181608083E1E8F0E03D
:104F10001082808182608083808181608083E0E86C
:104F2000F0E0808181608083E1EBF0E0808184604B
:104F30008083E0EBF0E0808181608083EAE7F0E04D
:104F400080818460808380818260808380818160B1
:104F500080838081806880831092C10008958830AA
:104F600018F09FE1981B892F87702091140190E41D
:104F7000299F90011124822B80937C0080917A00DC
:104F8000806480937A0080917A0086FDFCCF8091C6
:104F900078002091790090E0922B08951F93CF9391
:104FA000DF93182FEB0161E00E945628209711F43F
:104FB00060E004C0CF3FD10539F461E0812FDF917B
:104FC000CF911F910C948F28E12FF0E0E25CFE4F0F
:104FD000E491E330F9F048F4E130B9F0E230A1F5C2
:104FE00084B5806284BDC8BD34C0E730E9F0E830E4
:104FF00019F1E43049F5809180008062809380004F
:10500000D0938B00C0938A0024C084B5806884BD8F
:10501000C7BD1FC080918000806880938000D093BE
:105020008900C093880015C08091B000806880938B
:10503000B000C093B3000DC08091B0008062809337
:10504000B000C093B40005C0C038D1050CF0B5CF96
:10505000AFCFDF91CF911F910895833081F028F475
:10506000813099F08230A1F008958730A9F088301E
:10507000B9F08430D1F4809180008F7D03C080919D
:1050800080008F7780938000089584B58F7702C069
:1050900084B58F7D84BD08958091B0008F7703C063
:1050A0008091B0008F7D8093B0000895CF93DF93FF
:1050B00090E0FC01E25AFE4F2491FC01E258FE4FC1
:1050C0008491882349F190E0880F991FFC01EE54E8
:1050D000FE4FA591B49188559E4FFC01C591D49186
:1050E0009FB7611108C0F8948C91209582238C930E
:1050F000888182230AC0623051F4F8948C91322F57
:10510000309583238C938881822B888304C0F89404
:105110008C91822B8C939FBFDF91CF9108950F9339
:105120001F93CF93DF931F92CDB7DEB7282F30E0C8
:10513000F901E25CFE4F8491F901E25AFE4F1491AD
:10514000F901E258FE4F04910023C9F0882321F0B1
:1051500069830E942D286981E02FF0E0EE0FFF1F88
:10516000E855FE4FA591B4919FB7F8948C916111C9
:1051700003C01095812301C0812B8C939FBF0F909A
:10518000DF91CF911F910F910895CF93DF93282F37
:1051900030E0F901E25CFE4F8491F901E25AFE4FE2
:1051A000D491F901E258FE4FC491CC2391F08111C2
:1051B0000E942D28EC2FF0E0EE0FFF1FE256FE4F6D
:1051C000A591B4912C912D2381E090E021F480E011
:1051D00002C080E090E0DF91CF910895CF92DF92FE
:1051E000EF92FF920F931F93CF93DF9390E0FC0118
:1051F000E25AFE4FD491FC01E258FE4F74916111C6
:1052000002C0C0E001C0CD2FDA01C90133E0880F30
:10521000991FAA1FBB1F3A95D1F744E0B695A795F1
:10522000979587954A95D1F7672F70E0660F771F9E
:1052300062567E4F00E010E09801FB01E590F4908B
:10524000F70140814D234C131EC0680179014FEFD7
:10525000C41AD40AE40AF40A081719072A073B07F4
:1052600009F442C097018601E8CF68017901FFEF98
:10527000CF1ADF0AEF0AFF0A081719072A073B07A8
:1052800099F197018601FB01E590F490F7014081C7
:105290004D234C13EACF801B910BA20BB30B20E0E4
:1052A00030E0A901FB01E590F490F701F080FD22C8
:1052B000FC120AC0281739074A075B07A9F02F5FBD
:1052C0003F4F4F4F5F4FEECFA8E1B0E00E94D63185
:1052D000605F7F4F8F4F9F4F23E09695879577951F
:1052E00067952A95D1F703C060E070E0CB01DF91AC
:1052F000CF911F910F91FF90EF90DF90CF90089585
:10530000FC01818D228D90E0805C9F4F821B910972
:105310008F7399270895FC01918D828D981731F034
:10532000828DE80FF11D858D90E008958FEF9FEF3E
:105330000895FC01918D828D981761F0828DDF01B7
:10534000A80FB11D5D968C91928D9F5F9F73928F78
:1053500090E008958FEF9FEF089588E29BE2892BFC
:1053600041F080E090E0892B21F00E94282B8111F0
:105370000DC080E090E0892B71F080E090E0892BF7
:1053800051F00E940000811104C008950E940000A5
:10539000F0CF0C9400000895FC01848DDF01A80F6C
:1053A000B11DA35ABF4F2C91848D90E001968F734D
:1053B0009927848FA689B7892C93A089B1898C916C
:1053C00080648C93938D848D981306C00288F38932
:1053D000E02D80818F7D80830895CF93DF93EC0152
:1053E000888D8823C9F0EA89FB89808185FD05C005
:1053F000A889B9898C9186FD0FC00FB607FCF5CF3F
:10540000808185FFF2CFA889B9898C9185FFEDCF86
:10541000CE010E94CC29E7CFDF91CF910895CF92A2
:10542000DF92FF920F931F93CF93DF931F92CDB71D
:10543000DEB76C01DC015B969C915B975C968C916E
:105440005C97981307C05096ED91FC91519780811D
:1054500085FD32C0F601038D10E00F5F1F4F0F7303
:105460001127F02EF601848DF81211C00FB607FC3B
:10547000F9CFD6015096ED91FC915197808185FF2F
:10548000F1CFC60169830E94CC296981EBCF838D5E
:10549000E80FF11DE35AFF4F6083D6015B960C9332
:1054A0005B975296ED91FC91539780818062808347
:1054B00081E058968C930DC0D6015696ED91FC91E3
:1054C000579760835096ED91FC915197808180644D
:1054D000808381E090E00F90DF91CF911F910F9139
:1054E000FF90DF90CF900895BF92CF92DF92EF921E
:1054F000FF92CF93DF93EC016A017B01B22E60E84B
:1055000074E88EE190E0A70196010E948F3121504E
:105510003109410951095695479537952795E889ED
:10552000F98982E08083211580E1380798F0E889C5
:10553000F989108260E472E48FE090E0A70196019F
:105540000E948F31215031094109510956954795E3
:1055500037952795EC85FD853083EE85FF85208383
:10556000188EEC89FD89B082EA89FB89808180618F
:105570008083EA89FB89808188608083EA89FB894E
:10558000808180688083EA89FB8980818F7D808328
:10559000DF91CF91FF90EF90DF90CF90BF90089573
:1055A0001F920F920FB60F9211242F938F939F93F8
:1055B000EF93FF93E091C606F091C7068081E091DA
:1055C000CC06F091CD0682FD12C090818091CF066D
:1055D0008F5F8F732091D006821751F0E091CF0634
:1055E000F0E0EA54F94F958F8093CF0601C0808197
:1055F000FF91EF919F918F912F910F900FBE0F9080
:105600001F9018951F920F920FB60F9211242F938F
:105610003F934F935F936F937F938F939F93AF933A
:10562000BF93EF93FF9386EB96E00E94CC29FF9106
:10563000EF91BF91AF919F918F917F916F915F910A
:105640004F913F912F910F900FBE0F901F90189583
:1056500086EB96E00E94802921E0892B09F420E066
:10566000822F08951092B9061092B80688EE93E042
:10567000A0E0B0E08093BA069093BB06A093BC066E
:10568000B093BD0682E292E09093B7068093B6068F
:1056900085EC90E09093C3068093C20684EC90E082
:1056A0009093C5068093C40680EC90E09093C70663
:1056B0008093C60681EC90E09093C9068093C8065B
:1056C00082EC90E09093CB068093CA0686EC90E043
:1056D0009093CD068093CC061092CF061092D00600
:1056E0001092D1061092D206089508950E94742750
:1056F0000E94752B0E942F09CDEAD9E20E94B60BB9
:105700002097E1F30E94AD29F9CFCF92DF92EF927B
:10571000FF920F931F93CF93DF936C017A01EB01FC
:10572000E60EF71E00E010E0CE15DF0561F069918E
:10573000D601ED91FC910190F081E02DC601099513
:10574000080F191FF1CFC801DF91CF911F910F9161
:10575000FF90EF90DF90CF9008956115710581F073
:10576000DB010D900020E9F7AD0141505109461BC6
:10577000570BDC01ED91FC910280F381E02D09943F
:1057800080E090E00895EF92FF920F931F93CF93E4
:10579000DF938C01FB01C0E0D0E064917F018FEFCB
:1057A000E81AF80A662361F0D801ED91FC910190A6
:1057B000F081E02DC8010995C80FD91FF701EDCF81
:1057C000CE01DF91CF911F910F91FF90EF9008953F
:1057D0000C94AD2BDC01ED91FC910190F081E02D5A
:1057E00009940F931F93CF93DF93EC016DE00E9418
:1057F000EA2B8C016AE0CE010E94EA2B800F911FF8
:10580000DF91CF911F910F9108950F931F93CF9325
:10581000DF93EC010E94C32B8C01CE010E94F12B7F
:10582000800F911FDF91CF911F910F9108950F93DA
:105830001F93CF93DF93EC010E94AD2B8C01CE011F
:105840000E94F12B800F911FDF91CF911F910F913B
:1058500008958F929F92AF92BF92CF92DF92EF9274
:10586000FF920F931F93CF93DF93CDB7DEB7A1972E
:105870000FB6F894DEBF0FBECDBF7C01C42EE52F5E
:10588000CB01D22E19A221E02D1510F02AE0D22E44
:105890008E010F5D1F4F8D2C912CA12CB12C6C2DE6
:1058A0007E2FA50194010E948F318C2DD29E8019EC
:1058B0001124015011098A3014F4805D01C0895C03
:1058C000F8018083211531054105510521F0C22ED3
:1058D000E32FCA01E4CFB801C7010E94AD2BA19606
:1058E0000FB6F894DEBF0FBECDBFDF91CF911F91F1
:1058F0000F91FF90EF90DF90CF90BF90AF909F906F
:105900008F900895CF92DF92EF92FF920F931F93A3
:10591000CF93DF93EC016A017B012115310579F406
:10592000E881F9810190F081E02D642FDF91CF9122
:105930001F910F91FF90EF90DF90CF9009942A3044
:105940003105E9F477FF1AC06DE20E94EA2B8C0161
:1059500044275527BA014C195D096E097F092AE0D1
:10596000CE010E94292C800F911FDF91CF911F91B2
:105970000F91FF90EF90DF90CF9008952AE0B7014C
:10598000A601CE01DF91CF911F910F91FF90EF9073
:10599000DF90CF900C94292C0F931F93CF93DF931C
:1059A000EC019A01AB01662757FD6095762F0E94A6
:1059B000822C8C01CE010E94F12B800F911FDF9170
:1059C000CF911F910F9108950F931F93CF93DF9362
:1059D000EC010E94822C8C01CE010E94F12B800FE1
:1059E000911FDF91CF911F910F91089521153105DE
:1059F00041F4DC01ED91FC910190F081E02D642FE8
:105A000009940C94292C9A01462F50E060E070E034
:105A10000C94F62C0F931F93CF93DF93EC019A0114
:105A2000462F50E060E070E00E94F62C8C01CE0121
:105A30000E94F12B800F911FDF91CF911F910F9149
:105A400008950F931F93CF93DF93EC010E94F62CE0
:105A50008C01CE010E94F12B800F911FDF91CF911D
:105A60001F910F9108954F925F926F927F928F9244
:105A70009F92AF92BF92CF92DF92EF92FF920F93DD
:105A80001F93CF93DF93EC016A017B01B22E9A0141
:105A9000AB01C701B6010E940831882319F06EE2FC
:105AA00072E027C026013701E89477F82FEF3FEF27
:105AB0004FE75FE7C301B2010E94083181110DC0B9
:105AC0002FEF3FEF4FE75FE7C301B2010E94CE2EF9
:105AD00018161CF462E372E00CC02FEF3FEF4FE7A3
