:100000000C94E6000C940E010C940E010C940E015D
:100010000C943F0D0C940E010C940E010C940E01E7
:100020000C940E010C940E010C940E010C940E0114
:100030000C940E010C94D7260C940E010C940E0116
:100040000C940E010C940E010C9493270C940E0149
:100050000C949B2B0C94CD2B0C940E010C940E0144
:100060000C940E010C940E010C9440150C940E018E
:100070000C940E010C940E010C940E01700A780A77
:100080007B0A730A850A040BDB0A040BEC0A040BD7
:10009000C70A040B040BC20A05A84CCDB2D44EB952
:1000A0003836A9020C50B9918688083CA6AAAA2A1B
:1000B000BE000000803F5741524E494E473A204310
:1000C0006F6D6D756E69636174696F6E20666169CD
:1000D0006C7572652C20697320746865204D4652DA
:1000E000433532322070726F7065726C7920636FA5
:1000F0006E6E65637465643F00203D2028756E6BED
:100100006E6F776E2900203D2076322E3000203D24
:100110002076312E3000203D2076302E3000203DDC
:100120002028636C6F6E6529004669726D77617275
:10013000652056657273696F6E3A20307800000052
:100140000001020000000000000004030807000096
:10015000000000000000000000000000000001029C
:100160000408102040800102040810204080010291
:100170000408102040808040201008040201020280
:10018000020202020202040404040404040403033D
:100190000303030303030101010101010101000045
:1001A000200023002600290000002200250028004E
:1001B0002B0000002100240027002A007E041E07D7
:1001C000AD08640CE0115E14FD2BB60811241FBEAF
:1001D000CFEFD0E1DEBFCDBF12E0A0E0B1E0E2EAB8
:1001E000F8E602C005900D92A635B107D9F727E0D1
:1001F000A6E5B2E001C01D92A137B207E1F711E018
:10020000CAECD1E004C02297FE010E949332CC3B9D
:10021000D107C9F70E94412C0C9444340C9400007F
:1002200061E083E00E94212961E084E00C942129AF
:100230004F925F926F927F928F929F92AF92BF92F6
:10024000CF92DF92EF92FF920F931F93CF93DF93A2
:1002500000D000D0CDB7DEB76B017C0149015A0157
:1002600020E030E040E85FE30E941A311816E4F025
:1002700020E030E0A901C701B6010E948F2F87FD61
:100280001AC020E030EC4AED54E4C701B6010E94E8
:100290001E310E9403306B017C018EEEC80E82E09D
:1002A000D81EE11CF11C0DC044ECC42E49E0D42E34
:1002B000E12CF12C06C03EEEC32E32E0D32EE12C11
:1002C000F12C20E030E040E85FE3C501B4010E947A
:1002D0001A311816E4F020E030E0A901C501B4019C
:1002E0000E948F2F87FD1AC020E030EC4AED54E4C5
:1002F000C501B4010E941E310E9403304B015C0114
:100300009EEE890E92E0991EA11CB11C0DC024EC3A
:10031000822E29E0922EA12CB12C06C09EEE892EB1
:1003200092E0992EA12CB12C80E1482E87E2582E24
:10033000612C712CD301C2018C199D09AE09BF0932
:1003400089839A83AB83BC83481859086A087B0861
:10035000043111053CF0C8016AE070E00E943C32B3
:100360008B0102C002E010E061E000FD0DC083E0FF
:100370000E945A29C6010E94342860E083E00E944E
:100380005A2989819A810BC084E00E945A29C401AC
:100390000E94342860E084E00E945A29C2010E9431
:1003A00034280150110901F70F900F900F900F9012
:1003B000DF91CF911F910F91FF90EF90DF90CF9041
:1003C000BF90AF909F908F907F906F905F904F9075
:1003D000089586E592E00E94942286E592E00C94CE
:1003E00075266E3B25EB720723ED82072FEE9207F1
:1003F00009F459C108F082C06E3827E7720728EC6B
:1004000082072FEE920709F430C1E0F56E3726E53A
:10041000720726EC82072FEE920709F408C1C8F490
:100420006E342FEE720724EC82072FEE920709F448
:1004300013C16E392FEE720725EC82072FEE92075B
:1004400009F401C16537734D8745954C09F0D4C057
:100450002DC16E302EE4720728EC82072FEE920732
:1004600009F4D0C06E3E27E6720728EC82072FEE13
:10047000920709F4F7C06E3F7F4B874C9F4E09F0FF
:10048000BBC017C16E3A2CE672072EEC82072FEE26
:10049000920709F4F0C0C8F46E3E28EC72072AEC0B
:1004A00082072FEE920709F4B0C06E3928EC72076C
:1004B0002BEC82072FEE920709F4B3C06E3E764F05
:1004C000884C9F4E09F098C0BBC06E332DEE72076A
:1004D0002FEC82072FEE920709F4B8C06E3B2BE693
:1004E000720721ED82072FEE920709F4A6C06E3F36
:1004F000744B8F4C9F4E09F07FC081C06E3421EC4D
:1005000072072AED82072FEE920709F4A8C0D8F5EA
:100510006E3B27EE720726ED82072FEE920709F455
:1005200089C0C8F46E3A27EA720726ED82072FEEDB
:10053000920709F48EC06E372DEC720726ED820704
:100540002FEE920709F494C06E3C7848864D9F4E7A
:1005500009F052C069C06E3D26E7720729ED820797
:100560002FEE920709F48DC06E372AEE720729ED3F
:1005700082072FEE920709F48DC06E3C7F4E874DA7
:100580009F4ED1F581C06E332BE3720722EE8207B6
:100590002FEE920709F43FC0B8F46E3B20EA7207D1
:1005A0002CED82072FEE920709F468C06E3922E124
:1005B00072072FED82072FEE920781F16E307E4D8C
:1005C0008B4D9F4EC9F424C06E3A27E4720724EE87
:1005D00082072FEE920709F463C06E3A2DE5720789
:1005E00024EE82072FEE920709F457C06E3375444C
:1005F000824E9F4E09F44BC080E090E0089582E067
:1006000090E0089583E090E0089584E090E00895FC
:1006100085E090E0089586E090E0089587E090E01E
:10062000089588E090E0089589E090E008958AE0D8
:1006300090E008958BE090E008958CE090E00895BC
:100640008DE090E008958EE090E008958FE090E0D6
:10065000089580E190E0089581E190E0089582E1BD
:1006600090E0089583E190E0089584E190E008959A
:1006700085E190E0089587E190E0089586E190E0BB
:10068000089588E190E0089589E190E008958AE175
:1006900090E008958BE190E008958CE190E008955A
:1006A0008DE190E008958EE190E008958FE190E073
:1006B000089581E090E0089586E592E00E94AE26DC
:1006C000882329F086E592E00E94CD26F5CF089593
:1006D000CF92DF92EF92FF920F931F93CF93DF930E
:1006E000CDB7DEB769970FB6F894DEBF0FBECDBFAA
:1006F00086E592E00E94AE26882309F47FC086E555
:1007000092E00E94CD26882309F478C08091560299
:10071000843079F065E171E080ED96E00E94B32CC1
:100720004AE050E06091560280ED96E00E94CB2DA9
:1007300065C0609157027091580280915902909162
:100740005A020E94F1018C01009709F05AC046E05C
:1007500050E06FEF70E0CE0143960E94353482E1A5
:10076000898F06E512E09E012D5E3F4F47E060E66F
:10077000C8010E94E725892B19F066E371E00FC0DC
:100780009E01275E3F4FAE014F5F5F4F64E086E5FD
:1007900092E00E943C26892B79F067E571E080EDBC
:1007A00096E00E94E22C86E592E00E94A22586E572
:1007B00092E00E94382622C0C980DA80EB80FC805B
:1007C000C701B6010E94F1018C0186E592E00E940A
:1007D000A22586E592E00E9438260115110589F4CC
:1007E00067E771E080ED96E00E94B32C2AE030E0EC
:1007F000B701A60180ED96E00E94E22D80E090E036
:1008000003C00E945C03C80169960FB6F894DEBF6E
:100810000FBECDBFDF91CF911F910F91FF90EF9051
:10082000DF90CF9008959C0121503109223031058D
:1008300058F0215131092730310530F021E00C9773
:1008400009F020E0822F089581E008958830910515
:1008500044F08B3091051CF00D97029710F481E065
:10086000089580E008959C012951310981E02730E5
:10087000310508F080E00895FC011192119280E9A1
:1008800091E0DF019C011D9221503040E1F7089575
:100890000C943C04DC01ED91FC911197E83CF105CE
:1008A00059F03196ED93FC93EE0FFF1FE80FF91FFF
:1008B0007183608381E0089580E0089577FD0FC023
:1008C000FC0120813181621773074CF4FB013196E2
:1008D000EE0FFF1FE80FF91F80819181089580E0DE
:1008E00090E00895FC01808191810895FC0181E0F0
:1008F00020813181232B09F080E008954DE16EE0E5
:1009000086E592E00C945821CF92DF92EF92FF920D
:100910000F931F93CF93C9E184ECC82E89E0D82EA2
:10092000E12CF12C06E410E0A701960164E670E0EA
:1009300080E090E00E94AF1240E06C2F80E00E94C7
:10094000A30784EFC81A81E0D80AE108F108C55B63
:10095000C53441F7CF911F910F91FF90EF90DF9039
:10096000CF9008950F931F9340E060E08FEF0E94B7
:10097000A30706E410E028E833E140E050E064EF2C
:1009800071E080E090E00E94AF121F910F910895F6
:100990002F923F924F925F926F927F928F929F928F
:1009A000AF92BF92CF92DF92EF92FF920F931F937D
:1009B000CF93DF9300D000D0CDB7DEB79CE1292ED6
:1009C000312CC12CD12C7601A7019601C701B601AB
:1009D0000E942B2F2BED3FE049E450E40E941E3192
:1009E0000E9481314B015C0120E030E040E350E4A3
:1009F000C701B6010E94962F9B01AC0160E070E038
:100A000080E89FE30E942A2F69837A838B839C83EB
:100A100020E030E04CE852E40E941E310E94FE2F9C
:100A20002B013C0120E030E040E05FE3C501B40170
:100A30000E941E3120E030E040E05FE30E942B2F57
:100A400020E030E84BE354E40E941E3120E030E81F
:100A50004BE354E40E942B2F0E9403309B01AC0116
:100A6000820164E670E080E090E00E94AF12C50170
:100A7000B401905829813A814B815C810E941E31DA
:100A800020E030E04FE753E40E941E312B013C018F
:100A900020E030E0A9010E948F2F87FD06C0C3012E
:100AA000B2010E940330762E01C0712C29813A8157
:100AB0004B815C81C501B4010E941E3120E030E011
:100AC0004FE753E40E941E314B015C0120E030E00F
:100AD000A9010E948F2F87FD06C0C501B4010E94A5
:100AE0000330862F01C080E0472D60E00E94A307FD
:100AF0002DEC3CEC4CEC5DE3C701B6010E942B2FC2
:100B00006B017C0181E0281A310809F05DCF0F905C
:100B10000F900F900F90DF91CF911F910F91FF9049
:100B2000EF90DF90CF90BF90AF909F908F907F908D
:100B30006F905F904F903F902F9008950F931F9369
:100B400040E060E480E40E94A30706E410E022EEA7
:100B500034E040E050E06CE271E080E090E00E9420
:100B6000AF1240E060E080E00E94A30768EC70E014
:100B700080E090E00E940C2840E06FEF8FEF0E9431
:100B8000A30722EE34E040E050E06CE271E080E048
:100B900090E00E94AF1240E060E080E00E94A30776
:100BA00068EC70E080E090E00E940C2840E06FEF7D
:100BB00080E00E94A30720E233E040E050E06CE2D6
:100BC00071E080E090E00E94AF1240E060E080E0E1
:100BD0001F910F910C94A3070F931F93CF93C82FCE
:100BE00040E060E080E00E94A307CC2309F43FC00E
:100BF0004FEF6FEF8FEF0E94A30706E410E020E2B3
:100C000033E040E050E066E970E080E090E00E9470
:100C1000AF1266E970E080E090E00E940C2848EC9A
:100C200068EC88EC0E94A30728EE33E040E050E037
:100C30006AEF70E080E090E00E94AF1268EC70E034
:100C400080E090E00E940C2840E860E880E80E9484
:100C5000A30720ED37E040E050E060E971E080E07C
:100C600090E00E94AF12CF911F910F91089540E83C
:100C700060E880E80E94A30706E410E020ED37E07A
:100C800040E050E060E971E080E090E00E94AF1247
:100C900068EC70E080E090E00E940C2848EC68EC82
:100CA00088EC0E94A30728EE33E040E050E06AEFB2
:100CB00070E080E090E00E94AF1266E970E080E0B2
:100CC00090E00E940C284FEF6FEF8FEF0E94A30778
:100CD00020E233E040E050E066E970E080E090E040
:100CE0000E94AF1266E970E080E090E0CF911F9122
:100CF0000F910C940C280F931F93CF93DF9300D088
:100D000000D0CDB7DEB78931910534F0803291053E
:100D10002CF08FE190E002C089E190E04997DC017E
:100D2000AA0FBB1FAE56BE4F2D913C91442737FDF5
:100D30004095542FFC01EE0FFF1FEE0FFF1FEC59E3
:100D4000FD4F608171818281938129833A834B8336
:100D50005C830E947C0706E410E029813A814B8184
:100D60005C816CE271E080E090E00E94AF120F9035
:100D70000F900F900F90DF91CF911F910F910895D9
:100D80008531910554F482319105B4F48130910597
:100D900079F0029779F40C94C8048731910554F0E6
:100DA000893191054CF08032910524F40C947B0636
:100DB0000C949E050C94840408950F931F9340E0B7
:100DC0008823D1F064E684E60E94A30706E410E0DD
:100DD00028EE33E040E050E06CE271E080E090E02B
:100DE0000E94AF1240E066E486E40E94A30724E17B
:100DF00035E040E050E019C066E486E40E94A307B5
:100E000006E410E024E135E040E050E06CE271E0FF
:100E100080E090E00E94AF1240E064E684E60E9429
:100E2000A30728EE33E040E050E06CE271E080E0A0
:100E300090E00E94AF121F910F91089540E460E48A
:100E40008FEF0E947A07609364027093650280932B
:100E500066029093670240E060E88FEF0E947A0795
:100E6000609368027093690280936A0290936B02A8
:100E700040E06FEF8FEF0E947A0760936C027093EF
:100E80006D0280936E0290936F0240E06FEF80E0FE
:100E90000E947A07609370027093710280937202CD
:100EA000909373024CEC6CEC80E00E947A076093A4
:100EB00074027093750280937602909377024FEFDD
:100EC00060E08FE70E947A0760937802709379025E
:100ED00080937A0290937B024FE760E08FEF0E944D
:100EE0007A0760937C0270937D0280937E029093D8
:100EF0007F0208950C94BB20CF92DF92EF92FF9275
:100F00006B017C019B01AC0160E070E080E892E045
:100F10000E945620A701960161E070E080E892E00F
:100F20000E94562080E892E0FF90EF90DF90CF90F3
:100F30000C94B71E80E892E00E94331E60E070E0DF
:100F4000CB010C947C070E94BB200C947C07CF92B1
:100F5000DF92EF920F93CF93DF931F92CDB7DEB75F
:100F60006C01FC01408351836283738329830E9457
:100F7000E927F6016483758386839783108611863B
:100F8000128613862981622F70E080E090E00E9433
:100F90002F30F6016487758786879787602F70E00A
:100FA00080E090E00E942F30F601608B718B828B85
:100FB000938B6E2D70E080E090E00E942F30F60160
:100FC000648B758B868B978B0F90DF91CF910F91F0
:100FD000EF90DF90CF900895CF92DF92EF92FF9243
:100FE0000F931F93CF93DF93EC010E94E9278B01AE
:100FF0009C01688579858A859B85CC80DD80EE8023
:10100000FF806C197D098E099F09600F711F821F77
:10101000931F688779878A879B870C831D832E831C
:101020003F830E942F306B017C01688179818A8126
:101030009B810E942F309B01AC01C701B6010E9429
:10104000962F9B01AC010E942B2F2BED3FE049E432
:1010500050E40E941E310E94932F20E030E040E0D7
:101060005FE30E941E319B01AC0160E070E080E014
:101070009FE30E942A2F6B017C012C893D894E89B8
:101080005F890E941E310E940330062F288939890A
:101090004A895B89C701B6010E941E310E94033054
:1010A000162F2C853D854E855F85C701B6010E94B0
:1010B0001E310E940330862F402F612FDF91CF9188
:1010C0001F910F91FF90EF90DF90CF900C94A307AA
:1010D0000F931F93CF93DF9300D0CDB7DEB78C0172
:1010E00070E080E090E02A8349830E942F30F8016D
:1010F00064877587868797874981642F70E080E0D1
:1011000090E00E942F30F801608B718B828B938B63
:101110002A81622F70E080E090E00E942F30F80179
:10112000648B758B868B978B0F900F90DF91CF918F
:101130001F910F910895FC016485758586859785BB
:101140000895FC0160897189828993890895FC0161
:101150006489758986899789089522E530E045E19B
:1011600065E070E080E892E00C942E2080E892E048
:101170000C941F1E4F925F926F927F928F929F925C
:10118000AF92BF92CF92DF92EF92FF92CF93DF9315
:101190001F92CDB7DEB789EB95E00E94A7082B011F
:1011A0003C0189EB95E00E94A1084B015C0189EBB1
:1011B00095E00E949B086B017C01C301B2010E9473
:1011C0000330462FC501B40149830E940330B62E77
:1011D000C701B6010E940330862F49816B2D0F9005
:1011E000DF91CF91FF90EF90DF90CF90BF90AF90C5
:1011F0009F908F907F906F905F904F900C94A3077B
:101200008AE10E947A28BC01882777FD8095982F73
:101210000E94313026E636E64EE15CE30E941E3144
:10122000089560EA71E080ED96E00E94B32C0E9480
:101230000009AB01BC0122E030E080ED96E00E94A5
:10124000DF2E62EB71E080ED96E00E94B32C80ED22
:1012500096E00C94BC2CCF92DF92EF92FF920F930A
:101260001F930E946B0D0E9486120E949A0726E02F
:1012700040E051EE60E070E080ED96E00E943F2B90
:101280000E9455130E9413130E94E9010E9410014D
:101290000E94EC110E944B130E94E12E60E08AE153
:1012A0000E94212900E911E020E030E040E85FE3FE
:1012B00060E070E0CB010E9418010E9411090E94B9
:1012C00000096B017C012DEC3CEC4CEE50E40E94DB
:1012D0001A3118161CF440E06FEF0CC020E030E02B
:1012E00040EE50E4C701B6010E941A31181624F4EA
:1012F0004FEF60E080E00DC02FEF3FE848ED50E495
:10130000C701B6010E941A3118162CF440E06FEFA5
:101310008FEF0E94A3076CED75E080E090E01F91D5
:101320000F91FF90EF90DF90CF900C940C2887E204
:1013300094E00E943C0485E992E00E943C0482E033
:1013400090E00C94C006CF92DF92EF92FF926B0177
:101350007C010E94DD276C197D098E099F090E947E
:101360002F3020E030E04AE754E40E94962F20E03E
:1013700030E040E850E40E941E319B01AC010E9425
:101380002B2F2BED3FE049E450E40E941E310E94D8
:10139000813120E030E040E85FE30E942B2F20E025
:1013A00030E040E05FE30E941E3120E030E040E0AA
:1013B00053E40E941E3120E030E040E053E40E94FC
:1013C0002B2F0E940330862F462FFF90EF90DF9047
:1013D000CF900C94A3078F929F92AF92BF92CF921F
:1013E000DF92EF92FF924C010E94DD276B017C019E
:1013F000AA2497FCA094BA2C0E94DD276C197D09C1
:101400008E099F09681579058A059B0528F4C7018F
:10141000B6010E94A309F0CFFF90EF90DF90CF902C
:10142000BF90AF909F908F9008952F923F924F92D0
:101430005F926F927F928F929F92AF92BF92CF9264
:10144000DF92EF92FF920F931F93CF93DF93CDB76D
:10145000DEB729970FB6F894DEBF0FBECDBF9B83D2
:101460008A837D836C830E94BA08212C312C1986D3
:101470001886412C512C320119828C819D81019654
:101480009F838E838A819B810E947204281639066D
:101490000CF03DC164EB71E080ED96E00E94B32C4E
:1014A0004AE050E06885798580ED96E00E949F2DA6
:1014B000B1018A819B810E945E045C019981911136
:1014C000D6C0E885F985319609F4C0C0F501339797
:1014D000EE30F10508F098C0E25CFF4F0C949132B9
:1014E00084E893E002C08CE79CEF0E942A10AEC013
:1014F0008AE590E002C086EA9FEF0E94BE0DA8EC4C
:10150000CA2ED12CE12CF12CA5C0C0900E01D09098
:101510000F01E0901001F0901101A701960160E029
:1015200070E080E89FE30E942A2F9B01AC0100E954
:1015300011E0C701B6010E94180120E030E0A901C6
:1015400060910E0170910F01809110019091110135
:101550000E948F2F811105C086E696E6A6E2BFE3C2
:1015600003C080E090E0DC0180930E0190930F01B6
:10157000A0931001B0931101F6E9CF2ED12CE12CEC
:10158000F12C68C088EE93E00E94EB095FC022E076
:1015900030E040E050E060E070E0CB010E940D2FB1
:1015A000C12CD12C7601C394672B682B692BD1F504
:1015B0008FEF9FEF39C00E94F41120E030E040E24D
:1015C00051E40E941A31C12CD12C7601C394181613
:1015D00074F5EFEFFFEF2DC08A819B818559924012
:1015E00059F188859985892B39F5EC81FD81E93C94
:1015F000F1053CF46E817F8185E992E00E94150A35
:1016000025C00E94B20422C0C5010E943304882371
:10161000E9F0C5010E947B0644E6C42ED12CE12CE2
:10162000F12C18C081E090E09987888713C0E1E031
:10163000F0E0F987E8870EC0C12CD12C7601C39465
:1016400022242A94322C1986188604C0C12CD12C4D
:101650007601C394C5010E942604811102C0198637
:101660001886FFEF2F1A3F0A0E94BA0808C0C3016C
:10167000B2010E94A309C12CD12C7601C3940E940F
:10168000DD274B015C010E94DD27681979098A0971
:101690009B096C157D058E059F0508F0F3CE0E9411
:1016A000680382309105D1F429960FB6F894DEBF15
:1016B0000FBECDBFDF91CF911F910F91FF90EF90A3
:1016C000DF90CF90BF90AF909F908F907F906F9062
:1016D0005F904F903F902F900C9497098130910527
:1016E00041F481E090E00E94C006212C312C198247
:1016F000C9CE409741F6298181E028272983822F8E
:101700000E94EC050E94DD272B013C01BCCF2996ED
:101710000FB6F894DEBF0FBECDBFDF91CF911F9102
:101720000F91FF90EF90DF90CF90BF90AF909F9080
:101730008F907F906F905F904F903F902F90089583
:1017400087E294E00E94760481110CC081E090E071
:101750000E94C00661E070E087E294E00E94150AF2
:101760000C945C030C94B204CF93DF938AE10E9443
:101770007A288C3B9240CCF440E060E08FEF0E94EE
:10178000A30762EC71E080ED96E00E94E22C0E94DB
:10179000110968EE73E080E090E00E940C2840E0C0
:1017A00060E080E00E94A307FFCF89EB95E00E94F4
:1017B000EC070E946803EC01009709F482C04AE03C
:1017C00050E0BC0180ED96E00E949F2DCE010E946A
:1017D0001304882309F463C0C231D10511F420E059
:1017E0001DC0C331D10549F420E04FEF60E089EB23
:1017F00095E0DF91CF910C946808C831D10519F4B8
:101800002FEF40E0F3CFC431D10521F420E040E8D0
:101810006FEFEDCFC631D10519F42FEF40E0F8CFCF
:10182000C531D10519F420E048ECF2CFC731D1051C
:1018300021F42FEF40E06FE7DACFC130D10521F47A
:10184000DF91CF910C94A00BC230D10521F4DF9130
:10185000CF910C9497092C97A1F58091120190914A
:10186000130124E08732920761F485E992E00E9437
:101870003C0485E992E0909313018093120180E08B
:101880000AC085599240E9F487E294E090931301ED
:101890008093120181E0DF91CF910C94DD06BE01AF
:1018A00080911201909113010E944A04811104C099
:1018B000DF91CF910C94B204CE01DF91CF910C94C3
:1018C000C006DF91CF910895EF920F93EE24EA9432
:1018D0000FEF2FEF40E854E86EE170E089EB95E000
:1018E0000E94A70787E294E00E94480485E992E0FD
:1018F0000F91EF900C944804CF93DF93EC01862F67
:10190000688379830E9490299B838A831D821C822D
:10191000DF91CF910895CF93DF93EC0188810E94EE
:101920009029009739F48A819B81019789F41B8261
:101930001A820EC08130910559F42A813B81232BF4
:1019400039F49B838A838C819D8101969D838C834E
:10195000DF91CF910895CF93C8EEC80FC83070F0D3
:10196000883088F090EF980F983090F098EF980FAB
:10197000983008F07AC0E3E7F0E079C0EBE6F0E0F9
:10198000ABE6B0E009C0ECE6F0E0ACE6B0E004C0E5
:10199000EDE6F0E0ADE6B0E09C91C83048F42FE110
:1019A00030E0281B310941E050E060E070E023C0E6
:1019B000883068F441E050E060E070E0082E04C038
:1019C000440F551F661F771F0A94D2F71DC020EFE2
:1019D000280F283030F441E050E060E070E020EF64
:1019E00009C028EF280F283070F441E050E060E093
:1019F00070E028EF280F04C0440F551F661F771FA3
:101A00002A95D2F701C041E0492B40832BB3C8305F
:101A100050F0883050F090EF980F983040F098EFE9
:101A2000980F983030F091E005C092E003C094E048
:101A300001C098E0922B9BBB90916800C83078F071
:101A4000883048F020EF280F283038F08850883050
:101A500030F488E005C082E003C084E001C081E08A
:101A6000892B80936800CF910895E0E0F0E09830F2
:101A700018F4A3E7B0E090CFA0E0B0E08DCF1F92C4
:101A80000F920FB60F9211242F933F934F935F93B2
:101A90006F937F938F939F93AF93BF93EF93FF9336
:101AA000F89487ED95E00E948B0C81ED95E00E9403
:101AB0008B0C7894FF91EF91BF91AF919F918F9193
:101AC0007F916F915F914F913F912F910F900FBE3A
:101AD0000F901F901895CF93DF93CDB7DEB7C55405
:101AE000D1090FB6F894DEBF0FBECDBF8091810043
:101AF000887F81608093810060E08CE10E942129D1
:101B000060E08BE10E94212961E08DE00E942129A3
:101B100061E08CE00E94212961E088E10E94212996
:101B200061E089E10E9421298CE10E94AB0C8BE1EC
:101B30000E94AB0C81EE95E00E9422144AE050E036
:101B400060E070E0CE0101960E94B916811107C0D5
:101B500068ED71E080ED96E00E94E22C05C064E63D
:101B6000CE0101960E94C917CB5BDF4F0FB6F894E8
:101B7000DEBF0FBECDBFDF91CF9108952F923F9270
:101B80004F925F926F927F928F929F92AF92BF928D
:101B9000CF92DF92EF92FF920F931F93CF93DF9339
:101BA000CDB7DEB7CE5AD1090FB6F894DEBF0FBE5F
:101BB000CDBF4C014AE050E060E070E09E012F5F35
:101BC0003F4F2901C9010E94B916811107C068ED74
:101BD00071E080ED96E00E94E22C22C264E6C20130
:101BE0000E94C9173E0136E4630E711C6CE170E07F
:101BF000C3010E947C0C86E0F301A7EDB5E00190E3
:101C00000D928A95E1F76BE170E0C3010E947C0CB4
:101C100086E0F301A1EDB5E001900D928A95E1F720
:101C2000CD56DF4F188219821A821B82C359D040C9
:101C30001E014FE8240E311CF10110821182128224
:101C400013829E0125573F4FC956DF4F39832883A2
:101C5000C759D040C557DF4F188219821A821B829C
:101C6000CB58D0401F921F9285E38F9386E08F93CD
:101C700087E38F938DEB8F9386E4A82E84E6B82EAE
:101C800089E1C82E85E3D82E13E1E12E17E2F12E6B
:101C900006EB15E3285F3F4FAE0145575F4FB1019B
:101CA000C3010E94B21D61E070E0C3010E94601D8B
:101CB00000E010E02CE832E440E050E06CE872EC28
:101CC000C3010E949A1CF1011082118212821382B8
:101CD000B401882777FD8095982F0E94313020E04D
:101CE00034E244E759E40E941E310E94FE2FCF5592
:101CF000DF4F688379838A839B83C15AD0400E94D7
:101D0000DD27C356DF4F688379838A839B83CD5950
:101D1000D0400E94E9276B017C010E94DD27CB5552
:101D2000DF4F688379838A839B83C55AD040CF5520
:101D3000DF4F688179818A819B81C15AD0400E949E
:101D40003130CD56DF4F688379838A839B83C359B3
:101D5000D0400E94DD274B015C01F2E38F0E911C05
:101D6000A11CB11C0F900F900F900F900F900F902F
:101D700004E610E0C756DF4F188219821A821B82D0
:101D8000C959D040C355DF4F4882CD5AD040C255C3
:101D9000DF4F5882CE5AD04013010E94DD27C35630
:101DA000DF4F288139814A815B81CD59D040621B48
:101DB000730B840B950B643671058105910508F052
:101DC00025C10E94DD27CB55DF4F288139814A810B
:101DD0005B81C55AD040621B730B840B950B603D31
:101DE00077408105910508F011C18091DB05909144
:101DF000DC056090D5057090D605681679060CF460
:101E00003C010E94DD2745E0641671048CF4DC017E
:101E1000CB0188199909AA09BB090B97A105B1053E
:101E20003CF02AE0820E911CA11CB11C0B5F1F4FDD
:101E3000C756DF4F88819981AA81BB81C959D0409B
:101E4000CF55DF4F288139814A815B81C15AD0400B
:101E5000821B930BA40BB50BB7FF07C0B095A095E1
:101E6000909581959F4FAF4FBF4F85319F43A642BD
:101E7000B10550F00E94DD27C356DF4F6883798398
:101E80008A839B83CD59D0400E94E9272B013C01D6
:101E9000C355DF4F6881CD5AD040C255DF4F78819E
:101EA000CE5AD040CE0181589F4F0E94BF19C957CA
:101EB000DF4F688179818A819B81C758D0400E9419
:101EC000FE2F9B01AC01C301B2016C197D098E0983
:101ED0009F090E941832C756DF4F288139814A81F5
:101EE0005B81C959D040260F371F481F591FC7565D
:101EF000DF4F288339834A835B83C959D040CA01A5
:101F0000B9010E943130C157DF4F688379838A83DA
:101F10009B83CF58D040C1010E94C71A20E030E017
:101F2000A901C557DF4F688179818A819B81CB5890
:101F3000D0400E941A31181634F460E088E10E9403
:101F40005A2961E005C061E088E10E945A2960E0F9
:101F500089E10E945A29B801882777FD8095982F3A
:101F60000E943130C755DF4F688379838A839B8312
:101F7000C95AD040C557DF4FC880D980EA80FB805E
:101F8000CB58D04020E030E0A901C701B6010E9443
:101F90001A31A701960118160CF05058C755DF4F9B
:101FA000688179818A819B81C95AD0400E942B2FF8
:101FB0000E94FE2F6B017C014091DB055091DC05F6
:101FC0002091D5053091D605CA01821B930B97FF4E
:101FD00003C091958195910906976CF024173507F8
:101FE0001CF460E070E008C0B6018CE00E94992803
:101FF00060E070E005C0B6018CE00E949928B6014F
:102000008DE00E94992873016201C7CE60E070E004
:102010008DE00E94992860E070E08CE00E94992891
:10202000C255DF4F0FB6F894DEBF0FBECDBFDF91B4
:10203000CF911F910F91FF90EF90DF90CF90BF90C5
:10204000AF909F908F907F906F905F904F903F9058
:102050002F9008952F923F924F925F926F927F92AE
:102060008F929F92AF92BF92CF92DF92EF92FF92A8
:102070000F931F93CF93DF93CDB7DEB76B970FB658
:10208000F894DEBF0FBECDBF8C016CE170E0CE01D5
:1020900001960E947C0C86E0FE013196A7EDB5E02A
:1020A00001900D928A95E1F76BE170E0CE01019607
:1020B0000E947C0C86E0FE013196A1EDB5E0019016
:1020C0000D928A95E1F70E94E92717FD07C061E0AC
:1020D00088E10E945A2961E089E106C060E089E157
:1020E0000E945A2960E088E10E945A29580117FF8E
:1020F00003C0B194A194B1080E94DD276D877E874B
:102100008F87988B0E94DD276A8B7B8B8C8B9D8BB6
:102110000E94DD276B017C0114E6C10ED11CE11C7D
:10212000F11C9501359527953F8B2E8BE4EB4E2EB8
:10213000512CF8E76F2E712C0E94DD272D853E85EE
:102140004F855889621B730B840B950B643F71405C
:102150008105910508F45AC06EE072E080ED96E0CA
:102160000E94B32C6DE172E080ED96E00E94B32CEA
:102170004AE050E0B50180ED96E00E94972D6FE1B6
:1021800072E080ED96E00E94B32C6091DB057091C7
:10219000DC054AE050E080ED96E00E94972D63E276
:1021A00072E080ED96E00E94B32C6091D5057091AD
:1021B000D6054AE050E080ED96E00E94972D80ED34
:1021C00096E00E94BC2C60E070E08CE00E949928B0
:1021D00060E070E08DE00E9499286B960FB6F8944D
:1021E000DEBF0FBECDBFDF91CF911F910F91FF904A
:1021F000EF90DF90CF90BF90AF909F908F907F90A7
:102200006F905F904F903F902F9008950E94DD2730
:102210002A893B894C895D89621B730B840B950B62
:102220006C3D75408105910508F096CF0E94DD2731
:1022300069877A878B879C872091DB053091DC0545
:102240004091D5055091D60558874F835B8F4A8FB3
:102250004217530714F43B8F2A8F19014F81588579
:10226000241A350A410137FE04C0882499248218B3
:10227000930851E0598B4A8D5B8D4A155B050CF430
:102280009DC04DE2841641E0940654F0288F398FAA
:102290000E94DD276D877E878F87988B398D288DEB
:1022A0008091DB059091DC056091D5057091D60594
:1022B000860F971F97FD0196AC01559547958E891E
:1022C0009F89841795074CF410EF1403B001159FF4
:1022D000700D11246A0D7B1D05C0BA01660F771FB2
:1022E000660F771F4A8D5B8D45305105D4F4898583
:1022F0009A85AB85BC858C199D09AE09BF094597A8
:10230000A105B10574F054E1C50ED11CE11CF11C0E
:1023100083010B5F1F4FA2014B5F5F4F5A874987B5
:1023200003C05A8649868301598951111FC0130180
:10233000260E371E421453040CF4120126143704DF
:102340000CF4130183E08816910454F04F815885F2
:10235000421753071CF460E070E003C0B10122C0D3
:10236000B1018CE00E949928B10121C0A101425F16
:102370005F4F4D31510548F460E070E08DE00E9400
:10238000992860E070E08CE013C04F8158854217B7
:1023900053073CF460E070E08CE00E949928B8019B
:1023A00006C0B8018CE00E94992860E070E08DE0E2
:1023B0000E94992849845A843801BECE198A66CF72
:1023C0006CE170E087ED95E00E947C0C6BE170E0C1
:1023D00081ED95E00C947C0C61E083E10E94212961
:1023E00060E084E10C9421294F925F926F927F927A
:1023F0008F929F92AF92BF92CF92DF92EF92FF9215
:10240000CF93DF93C5E0D0E0C12CD12C76014601FB
:10241000570160E083E10E945A2982E090E00E9427
:10242000342861E083E10E945A298AE090E00E940A
:10243000342860E083E10E945A2920E137E240E03D
:1024400050E061E084E10E94B92922E030E040E000
:1024500050E00E947232CA01B9010E9431302DEC65
:102460003CEC48EE51E40E94962F2B013C0120E009
:1024700030E048E453E40E948F2F87FF1BC020E028
:1024800030E0A901C301B2010E941A31181694F478
:10249000A3019201C501B4010E942B2F4B015C01E5
:1024A00020E030E040E85FE3C701B6010E942B2F37
:1024B0006B017C0162E370E080E090E00E940C28F8
:1024C000219709F0A6CF20E030E0A901C701B601AD
:1024D0000E948F2F882339F0A7019601C501B4010E
:1024E0000E94962F04C06FEF7FEF8FE79FE7DF9189
:1024F000CF91FF90EF90DF90CF90BF90AF909F90E3
:102500008F907F906F905F904F90089561E087E18A
:102510000E94212961E08FE00E9421291092B300DE
:10252000E1EBF0E08081887F81608083A6EBB0E002
:102530008C918F798C93A0EBB0E08C9183608C931D
:102540008081877F80838C918F7380688C938C913E
:102550008F7C8C938081887F8160808308956F92C7
:102560007F928F929F92AF92BF92CF92DF92EF9223
:10257000FF920F93CF93DF9300D000D0CDB7DEB79B
:102580006B017C0129833A834B835C830E94DD27A6
:102590004B015C0129813A814B815C81DA01C901DF
:1025A000B695A795979587953C010E94DD276819F8
:1025B00079098A099B096C157D058E059F05F8F43C
:1025C00061E087E10E945A290093B300C3010E9491
:1025D00034281092B3008AE090E00E94342860E032
:1025E00087E10E945A290093B300C3010E94342856
:1025F0001092B3008AE090E00E943428D6CF109267
:10260000B3000F900F900F900F90DF91CF910F912B
:10261000FF90EF90DF90CF90BF90AF909F908F9002
:102620007F906F90089561E087E10E94212961E029
:102630008FE00E94212960E08FE10E942129EAE7D2
:10264000F0E080818460808380818D7F80838081C1
:102650008E7F80831092B300E1EBF0E08081887F71
:1026600081608083A6EBB0E08C918F798C93A0EB96
:10267000B0E08C9183608C938081877F80838C9184
:102680008F7380688C938C918F7C8C938081887FF2
:102690008160808308958FE10C947A288EBD0000BC
:1026A0000DB407FEFDCF8EB50895CF93CFB7F89444
:1026B0008091E005811127C0E2E8F1E08491E2E633
:1026C000F1E09491E82FF0E0EE0FFF1FEE54FE4F83
:1026D000A591B4918C91892321F461E084E00E945A
:1026E0005A2961E084E00E9421298CB580618CBD6B
:1026F0008CB580648CBD61E087E00E94212961E097
:1027000085E00E9421298091E0058F5F8093E0059C
:10271000CFBFCF9108958091110690E020911206CD
:10272000821B9109089520911206809111062817A5
:1027300050F4E22FF0E0ED5EF94F808190E02F5FE2
:102740002093120608958FEF9FEF0895E0911206EF
:1027500080911106E81730F4F0E0ED5EF94F8081CA
:1027600090E008958FEF9FEF08950895CF92DF9244
:10277000EF92FF920F931F93CF93DF937C01CB01D6
:102780008A012091ED05222389F0EB016B01C40E33
:10279000D51ECC15DD0569F06991D701ED91FC914D
:1027A0000190F081E02DC7010995F3CF642F0E94BD
:1027B0001715C801DF91CF911F910F91FF90EF90F6
:1027C000DF90CF900895CF93DF931F92CDB7DEB700
:1027D00069832091ED052223D1F02091EE0520326E
:1027E00040F021E030E0FC013383228380E090E080
:1027F00015C08091EF05E82FF0E0E051FA4F998184
:1028000090838F5F8093EF058093EE0505C061E0B4
:10281000CE0101960E94171581E090E00F90DF91A4
:10282000CF910895FC011382128248EE53E060E0DC
:1028300070E044835583668377838BE292E09183D3
:102840008083089510921206109211061092EF05DF
:102850001092EE050C946214862F413208F040E28B
:1028600063E176E00E9480141092120680931106B4
:10287000089521E00C942C1481E08093ED05609381
:1028800010061092EF051092EE0508950C943C147A
:102890000F93062F21E04091EE0560EF75E08091E7
:1028A00010060E94C4141092EF051092EE051092CB
:1028B000ED050F91089561E00C94481481EE95E0C8
:1028C0000C9412141092A00681E080939E06109240
:1028D0009D0661E081E10E945A2961E080E10E9449
:1028E0005A29E9EBF0E080818E7F808380818D7FA3
:1028F000808380E28093B80085E48093BC000895D3
:10290000413208F03FC09091A0069111FCCF91E0B8
:102910009093A00620939E062FEF209333061092EB
:102920007806240F2093770690939F0690919F0638
:10293000880F892B80939F0680919D06813041F4FA
:1029400010929D0680919F068093BB0085EC01C08C
:1029500085EE8093BC008091A0068130E1F38091E8
:102960007806841710F44091780629E736E0FB01D9
:10297000D9018A2F821B841718F48D918193F9CF86
:10298000842F089580E008950F93413208F046C0E7
:102990009091A0069111FCCF92E09093A006009335
:1029A0009E069FEF90933306109278064093770629
:1029B000FB0169E776E0DB019A2F961B941718F468
:1029C00091919D93F9CF10929F0690919F06880F49
:1029D000892B80939F0680919D06813041F410924F
:1029E0009D0680919F068093BB0085EC01C085EE1B
:1029F0008093BC00222321F08091A0068230E1F375
:102A0000809133068F3F61F080913306803251F020
:102A100080913306803341F483E007C081E005C034
:102A200080E003C082E001C084E00F91089561322C
:102A300098F42091A006243089F460935506FC0197
:102A400087E596E0DC012A2F281B261718F4219130
:102A50002D93F9CF80E0089581E0089582E00895F4
:102A600085ED8093BC008091BC0084FDFCCF10926A
:102A7000A006089585EC8093BC001092A0060895EE
:102A80001F920F920FB60F9211242F933F934F93E3
:102A90005F936F937F938F939F93AF93BF93EF93C6
:102AA000FF938091B900887F803609F49CC068F557
:102AB000883209F45BC090F4803109F454C038F4D2
:102AC000882309F4F5C0883009F44DC0F5C0883179
:102AD00009F44CC0803209F45DC0EEC0803409F4C2
:102AE00068C048F4803309F455C0883309F0E4C065
:102AF00080933306A8C0803509F44FC0883509F4A7
:102B00005DC0883409F0D8C0D5C0883909F4C6C082
:102B1000A8F4883709F467C038F4883609F463C02C
:102B2000803709F460C0C8C0883809F4B7C080395C
:102B300009F45FC0803809F0BFC05BC0803B09F476
:102B400085C038F4803A09F466C0883A09F47EC03A
:102B5000B3C0803C09F4A6C0883C09F4A3C0883BFC
:102B600009F489C0A9C080919F0610C09091780691
:102B700080917706981770F5E091780681E08E0FC6
:102B800080937806F0E0E758F94F80818093BB008E
:102B900085EC85C0809333068DC0E091780681E096
:102BA0008E0F809378068091BB00F0E0E758F94FD4
:102BB000808390917806809177066DC0E0917806C9
:102BC00081E08E0F809378068091BB00F0E0E7589B
:102BD000F94F808380919E0681116CC081E08093C3
:102BE0009D0684EA60C083E08093A00610923406BC
:102BF000CFCF80913406803208F050C0E091340687
:102C000081E08E0F809334068091BB00F0E0EB5C96
:102C1000F94F8083BDCF80913406803230F4E0914B
:102C20003406F0E0EB5CF94F10820E9430156091A1
:102C3000340670E0E0919906F0919A0685E396E0FB
:102C40000995109234060E943A1536C084E08093AC
:102C5000A0061092560610925506E0919B06F09140
:102C60009C06099580915506811105C081E08093ED
:102C7000550610925706E091560681E08E0F80931C
:102C80005606F0E0E95AF94F80818093BB0090919D
:102C9000560680915506981708F47ACF85E88093F8
:102CA000BC000AC085EC8093BC001092A00604C052
:102CB000109233060E943015FF91EF91BF91AF91B2
:102CC0009F918F917F916F915F914F913F912F9144
:102CD0000F900FBE0F901F9018951F93CF93DF9307
:102CE0001F92CDB7DEB7162F69E670E081EE95E052
:102CF00049830E944614612F81EE95E00E94E31300
:102D00004981642F81EE95E00E94E31381EE95E006
:102D10000F90DF91CF911F910C945B14CF93C62F2E
:102D200069E670E081EE95E00E9446146C2F81EE1A
:102D300095E00E94E31381EE95E00E945B1469E642
:102D400070E081EE95E00E94461441E050E069E6B3
:102D500070E081EE95E00E94391481EE95E00E94CA
:102D60009313C82F81EE95E00E945B148C2FCF91B6
:102D70000895EF92FF920F931F93CF93DF93EC018F
:102D80008B017A01188E198E1A8E1B8E1C8E1D8E49
:102D90001E8E1F8E18A219A21AA21BA218AA1CA26C
:102DA0001DA21EA21FA218A619A61AA61BA61CA623
:102DB0001DA61EA61FA619AA1AAA1BAA1CAA81EE46
:102DC00095E00E9422146FE0CE010E948E16833D92
:102DD00009F041C0A70184E0440F551F8A95E1F72F
:102DE0004F6060E2CE010E946D1640E061E2CE01CC
:102DF0000E946D1648E062E2CE010E946D16402FDF
:102E00004295407F63E2CE010E946D1601301105AC
:102E100071F00230110581F0012BB1F489E29CE5DB
:102E2000AFE0BCE38DAB9EABAFABB8AF0DC049E23A
:102E30005CE56FE87CE304C049E25CE56FE87DE3B4
:102E40004DAB5EAB6FAB78AF40E064E2CE010E9469
:102E50006D1681E001C080E0DF91CF911F910F914D
:102E6000FF90EF9008954F925F926F927F928F92B2
:102E70009F92AF92BF92CF92DF92EF92FF920F9309
:102E80001F93CF93DF938C01EB0169E670E081EE35
:102E900095E00E944614E091E105F091E205019071
:102EA000F081E02D68EA81EE95E0099581EE95E0EC
:102EB0000E945B1446E050E069E670E081EE95E028
:102EC0000E94391481EE95E00E948B130697D4F38B
:102ED00081EE95E00E949313582E81EE95E00E94BA
:102EE0009313482E81EE95E00E949313782E81EE85
:102EF00095E00E949313682E81EE95E00E94931353
:102F0000B82E81EE95E00E949313A82E942C812C6C
:102F10008528B401882777FD8095982F0E9431304D
:102F2000688379838A839B83D62CC12CC728B601FA
:102F3000882777FD8095982F0E9431306C837D83A0
:102F40008E839F83FA2CE12CEB28B701882777FD2D
:102F50008095982F0E943130688779878A879B8770
:102F60008CE0FE01D80101900D928A95E1F7C8012D
:102F7000DF91CF911F910F91FF90EF90DF90CF9055
:102F8000BF90AF909F908F907F906F905F904F9089
:102F900008952F923F924F925F926F927F928F92FD
:102FA0009F92AF92BF92CF92DF92EF92FF920F93D8
:102FB0001F93CF93DF93CDB7DEB7A4970FB6F894E6
:102FC000DEBF0FBECDBF1C01062F81E0D101D09620
:102FD0008C9310E01D8E1E8E1F8E18A2198E1A8ED5
:102FE0001B8E1C8E1D8A1E8A1F8A188E198A1A8AA9
:102FF0001B8A1C8A812C912C540124013501101745
:1030000009F47EC0B101CE0101960E943317F1018F
:10301000C080D180E280F380A7019601C301B20194
:103020000E942B2F2B013C01D10114968D919D9173
:103030000D90BC91A02D8D879E87AF87B88B9C018A
:10304000AD01C501B4010E942B2F4B015C01D101E0
:1030500018968D919D910D90BC91A02D89A39AA356
:10306000ABA3BCA39C01AD0169897A898B899C893A
:103070000E942B2F698B7A8B8B8B9C8BA7019601DF
:10308000C701B6010E941E319B01AC016D897E898A
:103090008F89988D0E942B2F6D8B7E8B8F8B988FB5
:1030A0002D853E854F855889CA01B9010E941E3180
:1030B0009B01AC01698D7A8D8B8D9C8D0E942B2F8D
:1030C000698F7A8F8B8F9C8F29A13AA14BA15CA12C
:1030D000CA01B9010E941E319B01AC016D8D7E8D2C
:1030E0008F8D98A10E942B2F6D8F7E8F8F8F98A32D
:1030F00065E070E080E090E00E940C281F5F7FCFC9
:10310000612F70E080E090E00E9431306B017C0123
:103110009B01AC01C301B2010E94962F2B013C011F
:10312000F101608F718F828F938FA7019601C50186
:10313000B4010E94962F6D877E878F87988BD1016F
:103140005C966D937D938D939C935F97A7019601F9
:1031500069897A898B899C890E94962F4B015C0131
:10316000F10160A371A382A393A3A70196016D89C6
:103170007E898F89988D0E94962F698B7A8B8B8B95
:103180009C8BA3019201C301B2010E941E319B01DD
:10319000AC0169897A898B899C890E942A2F0E94B7
:1031A0008B31D101D9966D937D938D939C93DC9750
:1031B000A7019601698D7A8D8B8D9C8D0E94962F2B
:1031C0002B013C012D853E854F855889CA01B901E7
:1031D0000E941E319B01AC01C301B2010E942A2F43
:1031E0000E948B31F101FD9660837183828393830A
:1031F000A70196016D8D7E8D8F8D98A10E94962FCF
:103200006B017C01A5019401C501B4010E941E312E
:103210009B01AC01C701B6010E942A2F0E948B318D
:10322000F101EF5BFF4F6083718382839383F10130
:10323000C1A8D2A8E3A8F4A820E030E0A901C70102
:10324000B6010E941A311816FCF4C701B6010E949B
:103250000330C101A4960FB6F894DEBF0FBECDBFF8
:10326000DF91CF911F910F91FF90EF90DF90CF9062
:10327000BF90AF909F908F907F906F905F904F9096
:103280003F902F900C945D19A4960FB6F894DEBF72
:103290000FBECDBFDF91CF911F910F91FF90EF90A7
:1032A000DF90CF90BF90AF909F908F907F906F9066
:1032B0005F904F903F902F900895CF92DF92EF92C2
:1032C000FF921F93CF93DF93EC01162F6623C9F172
:1032D00088A9811104C062E3CE010E94C917612F41
:1032E00070E080E090E00E9431306B017C019B0136
:1032F000AC0169AD7AAD8BAD9CAD0E941E316CA363
:103300007DA38EA39FA3A7019601FE01FD96608178
:103310007181828193810E941E3168A779A78AA753
:103320009BA7A7019601FE01EF5BFF4F60817181B2
:10333000828193810E941E316CA77DA78EA79FA7D3
:103340000CC01CA21DA21EA21FA218A619A61AA676
:103350001BA61CA61DA61EA61FA6612F70E080E05E
:1033600090E00E942F3069AB7AAB8BAB9CABDF91C6
:10337000CF911F91FF90EF90DF90CF900895AF9283
:10338000BF92CF92DF92EF92FF920F931F93CF9352
:10339000DF93CDB7DEB72C970FB6F894DEBF0FBE24
:1033A000CDBF5C018B01CE0101960E943317F8015D
:1033B00080A9C5A8D6A8E7A8F0AC882399F1208DEC
:1033C000318D428D538D60817181828193810E9404
:1033D0002A2FA70196010E941E31F8016487758784
:1033E00086879787248D358D468D578D64817581AD
:1033F000868197810E942A2FA70196010E941E3183
:10340000F801608B718B828B938B20A131A142A13B
:1034100053A160857185828593850E942A2FA7011B
:10342000960121C0A7019601F80160817181828116
:1034300093810E941E31F80164877587868797877C
:10344000A701960164817581868197810E941E3152
:10345000F801608B718B828B938BA701960160853D
:103460007185828593850E941E31F801648B758B6E
:10347000868B978B20E030E0A901F80161A972A941
:1034800083A994A90E941A3118160CF066C0F8019D
:10349000C484D584E684F78420E030E0A901C70124
:1034A000B6010E941A31181624F0C701B6019058CF
:1034B00002C0C701B601F80124A135A146A157A158
:1034C0000E948F2F87FF05C0F80114861586168687
:1034D0001786F801C088D188E288F38820E030E0C0
:1034E000A901C701B6010E941A31181624F0C701BC
:1034F000B601905802C0C701B601F80120A531A558
:1035000042A553A50E948F2F87FF05C0F801108A9E
:10351000118A128A138AF801C488D588E688F78848
:1035200020E030E0A901C701B6010E941A31181647
:1035300024F0C701B601905802C0C701B601F801D6
:1035400024A535A546A557A50E948F2F87FF05C046
:10355000F801148A158A168A178A8CE0F8013C96BD
:10356000D50101900D928A95E1F7C5012C960FB611
:10357000F894DEBF0FBECDBFDF91CF911F910F91A9
:10358000FF90EF90DF90CF90BF90AF9008952F9273
:103590003F924F925F926F927F928F929F92AF92E3
:1035A000BF92CF92DF92EF92FF920F931F93CF9330
:1035B000DF93CDB7DEB72B970FB6F894DEBF0FBE03
:1035C000CDBF9B878A87DC01D896BC91B983B111A6
:1035D00002C01982E2C00E94DD276A837B838C834C
:1035E0009D83EA85FB8580A191A1A2A1B3A14A8117
:1035F0005B816C817D81481B590B6A0B7B0B84A519
:1036000095A5A6A5B7A5481759076A077B0708F32C
:10361000028CF38DE02D80809180A280B380AA85FA
:10362000BB855E96ED91FC915F97A5019401608149
:103630007181828193810E942A2F2B013C01EA85AE
:10364000FB8520893189428953890E941E31AA85D0
:10365000BB8594962D913D914D915C9197970E94D9
:103660002B2F6B017C01EA85FB8564A375A386A3E0
:1036700097A324A835A806A917A99101A8010E941B
:103680001A3118161CF4C101D80118C0AA85BB85CF
:10369000D0968D919D910D90BC91A02D8E839F838E
:1036A000A887B9879C01AD01C701B6010E948F2F81
:1036B00087FF0AC08E819F81A885B985EA85FB8531
:1036C00084A395A3A6A3B7A3AA85BB851C962D9119
:1036D0003D914D915C911F97C301B2010E941E3133
:1036E000EA85FB8524A135A146A157A10E942B2F75
:1036F0006B017C01AA85BB8598962D913D914D91DA
:103700005C919B97C501B4010E942A2FEA85FB8535
:1037100024893589468957890E941E319B01AC0155
:10372000C701B6010E942A2F6B017C019101A801FB
:103730000E941A311816BCF0AA85BB85D0962C9031
:10374000D097D1963C90D197D2960C91D297D396A0
:103750001C919101A801B601C7010E948F2F87FD1E
:1037600002C016018701AA85BB855C96ED91FC918C
:103770005D97C101D80180839183A283B383EA85D9
:10378000FB8580A691A6A2A6B3A68A819B81AC8167
:10379000BD8180A391A3A2A3B3A389812B960FB669
:1037A000F894DEBF0FBECDBFDF91CF911F910F9177
:1037B000FF90EF90DF90CF90BF90AF909F908F9051
:1037C0007F906F905F904F903F902F9008952F9231
:1037D0003F924F925F926F927F928F929F92AF92A1
:1037E000BF92CF92DF92EF92FF920F931F93CF93EE
:1037F000DF9300D000D0CDB7DEB71C012A013B011A
:103800004801590120E030E0A901C301B2010E9442
:103810008F2F87FD78C020E030E0A901C501B401F9
:103820000E948F2F87FD6FC020E030E0A901C70103
:10383000B6010E948F2F87FD66C0F1014082518240
:103840006282738284829582A682B782C086D18684
:10385000E286F38664A575A586A597A50E942F30FC
:1038600020E030E04AE754E40E94962F69837A838F
:103870008B839C83F10144865586668677869B01FF
:10388000AC01C501B4010E941E314B015C01F10184
:10389000608B718B828B938B29813A814B815C8108
:1038A000C701B6010E94962F6B017C01F101648B68
:1038B000758B868B978B808D918D019721F5A30158
:1038C000920160E070E0CB010E942A2FF101648731
:1038D000758786879787A501940160E070E0CB012A
:1038E0000E942A2FF101608B718B828B938BA70131
:1038F000960160E070E0CB010E942A2FF101648BF9
:10390000758B868B978B0F900F900F900F90DF9198
:10391000CF911F910F91FF90EF90DF90CF90BF90CC
:10392000AF909F908F907F906F905F904F903F905F
:103930002F9008952F923F924F925F926F927F92B5
:103940008F929F92AF92BF92CF92DF92EF92FF92AF
:103950000F931F93CF93DF93EC016A017B01480122
:103960005901A9019801C701B6010E941A3187FFC8
:103970004EC0C8AAD9AAEAAAFBAA8CAA9DAAAEAA36
:10398000BFAA88AD882309F442C02C8C3D8CF1017C
:103990004080518062807380A5019401C301B2010F
:1039A0000E941A31181634F4F10180829182A282A9
:1039B000B3820DC0A7019601C301B2010E948F2FEF
:1039C00087FF05C0F101C082D182E282F3828CA020
:1039D0009DA0AEA0BFA0CCA8DDA8EEA8FFA8A7011F
:1039E0009601C501B4010E941A31181664F0C8A8E6
:1039F000D9A8EAA8FBA8A7019601C501B4010E94B5
:103A00008F2F87FF04C0CCA2DDA2EEA2FFA2DF9120
:103A1000CF911F910F91FF90EF90DF90CF90BF90CB
:103A2000AF909F908F907F906F905F904F903F905E
:103A30002F9008958F929F92AF92BF92CF92DF9274
:103A4000EF92FF92CF93DF93EC01EC8DFD8DC08060
:103A5000D180E280F380CCA2DDA2EEA2FFA2EA8DAB
:103A6000FB8D80819181A281B38188A799A7AAA7A4
:103A7000BBA78CA89DA8AEA8BFA8A5019401C701AB
:103A8000B6010E941A31181664F088A899A8AAA84D
:103A9000BBA8A5019401C701B6010E948F2F87FF23
:103AA00004C08CA29DA2AEA2BFA2DF91CF91FF90D5
:103AB000EF90DF90CF90BF90AF909F908F90089540
:103AC0001F93CF93DF93EC0111E06130710509F092
:103AD00010E088AD91E08927181303C0CE010E9441
:103AE0001A1D18AFDF91CF911F9108950F931F9367
:103AF000CF93DF93EC018B0188AD882361F1888D32
:103B0000998D6817790739F12C853D854E855F853C
:103B100060E070E0CB010E942A2F6C877D878E8742
:103B20009F87288939894A895B8960E070E0CB01E9
:103B30000E942A2F688B798B8A8B9B8B2C893D89DD
:103B40004E895F8960E070E0CB010E942A2F6C8B68
:103B50007D8B8E8B9F8B198F088FDF91CF911F915B
:103B60000F9108954F925F926F927F928F929F92E2
:103B7000AF92BF92CF92DF92EF92FF920F931F937B
:103B8000CF93DF9300D000D0CDB7DEB74C01270133
:103B90003801A982BA82CB82DC82FC01558F448F26
:103BA000738F628F378F268F10AE10AA11AA12AAB8
:103BB00013AA80E090E0AFE7B3E484AB95ABA6AB8B
:103BC000B7AB84E690E0A0E0B0E084A795A7A6A7F5
:103BD000B7A76B8D7C8DC4010E94761DCF88D88CD1
:103BE000E98CFA8C09811A812B813C81B301A201F5
:103BF000C4010E94E71B0E94DD27F40144A455A4E0
:103C000066A477A4641975098609970960A371A34E
:103C100082A393A30F900F900F900F90DF91CF91FD
:103C20001F910F91FF90EF90DF90CF90BF90AF90DA
:103C30009F908F907F906F905F904F900895CF935B
:103C4000DF93EC0188859985009711F00E94493334
:103C50008E8187FD05C060E0DF91CF910C94212912
:103C6000DF91CF910895CF93DF93EC018E8187FD93
:103C700007C061E00E94212960E08E810E945A29DC
:103C800081E08983DF91CF910895EF92FF920F93A6
:103C90001F93CF93DF93EC017B0188859985009773
:103CA00011F00E9449339D858A85981303C083E0F3
:103CB00090E002C084E090E08E9D80018F9D100D09
:103CC0009E9D100D11241D830C83C8010E94B132EA
:103CD00099878887009741F0A80160E070E00E9412
:103CE0003534FB82EA8204C01D821C821B821A8248
:103CF000DF91CF911F910F91FF90EF900895FC01FC
:103D000021E095858285981320E0CB0136E09695D9
:103D100087953A95E1F7482F43704587CB0154E0EA
:103D2000969587955A95E1F7382F33703287CB01F6
:103D3000969587959695879583708387862F837050
:103D4000848781E06F3F710511F008F080E0808387
:103D500080859185892B51F091E0431390E0921773
:103D600029F062817381CF010C94451E0895CF9292
:103D7000DF92EF92FF920F931F93CF93DF93CDB714
:103D8000DEB729970FB6F894DEBF0FBECDBF8C010A
:103D9000DC0118968D919C911997892B09F41DC10E
:103DA0000E94E927F801C684D784E088F1886C195D
:103DB0007D098E099F09623371058105910580F3A4
:103DC000F894848195819A838983A085B1857D014A
:103DD000EFEFEE1AFE0A8C918987D8018C915296EA
:103DE0000D90BC91A02D882309F4BDC01D82AB327B
:103DF000B10509F059C09BB1F8018489982B9887C7
:103E00009BB1809589238F838F818E83898587FFDE
:103E100002C088858E8358856F8149853E812D81BA
:103E200089819A81D7015BB9262F3BB900C046FD35
:103E3000252F6BB900C05BB9362F2BB900C045FDEB
:103E4000352F6BB900C05BB9262F3BB900C044FDCC
:103E5000252F6BB900C05BB9362F2BB900C043FDCD
:103E6000352F6BB900C05BB9262F3BB900C042FDAE
:103E7000252F6BB900C05BB9362F2BB900C041FDAF
:103E8000352F6BB900C05BB9262F3BB900C040FD90
:103E9000252F6BB901975BB9362F2BB94D9147FD93
:103EA000352F6BB901F65BC0989709F08CC098B1BB
:103EB000F8018489982B988798B1809589238F83FE
:103EC0008F818E83898587FF02C088858E83588580
:103ED0006F8149853E812D8189819A81D70158B9A9
:103EE000262F38B900C046FD252F68B900C058B943
:103EF000362F28B900C045FD352F68B900C058B924
:103F0000262F38B900C044FD252F68B900C058B924
:103F1000362F28B900C043FD352F68B900C058B905
:103F2000262F38B900C042FD252F68B900C058B906
:103F3000362F28B900C041FD352F68B900C058B9E7
:103F4000262F38B900C040FD252F68B9019758B910
:103F5000362F28B94D9147FD352F68B901F64987AD
:103F60003E832D832EC09C91F8018489982B9887DD
:103F70009C91809589238F838F818C8388E08B83AC
:103F800058856F8149853B812C8189819A81F70110
:103F90005C9347FD252F2C93262F3A9531F0441F33
:103FA0006C9300C000C000C0F3CF6C93000038E0F9
:103FB0004191019769F7F801B38BA28B49873B8345
:103FC0002C839A83898378940E94E927D8011E96CE
:103FD0006D937D938D939C93519729960FB6F8948A
:103FE000DEBF0FBECDBFDF91CF911F910F91FF902C
:103FF000EF90DF90CF9008951F93CF93DF93EC0164
:10400000162F8981882331F08E8187FD03C060E0FF
:104010000E9421291E838981882341F061E0812F3C
:104020000E94212960E0812F0E945A29812F90E06F
:10403000FC01E258FE4FE491F0E0EE0FFF1FE8555F
:10404000FE4F259134913B8B2A8BFC01E25AFE4FA7
:1040500084918C8BDF91CF911F910895EF92FF9205
:104060000F931F93CF93DF931F92CDB7DEB77C01E1
:104070008B01FC0111821782118610861686178625
:10408000108A118AB90149830E947F1EB801C701B5
:104090000E94451E4981642FC7010F90DF91CF9187
:1040A0001F910F91FF90EF900C94FC1FCF92DF9225
:1040B000EF92FF920F931F93CF93DF93FC018281C6
:1040C00093816817790708F04DC0CA01AA27BB275A
:1040D000182FC32ED42EE52EFF24DC2DC22F0781EE
:1040E000002361F0809FC0011124192FC09E600140
:1040F0001124DD2D209FC0011124C92FF584828554
:10410000A085B185F81208C0CB01880F991F860FD2
:10411000971F8A0F9B1F17C0CB01880F991F880F0D
:10412000991F8A0F9B1F452F552766277727DC018C
:10413000AF0DB11D002329F0409F90011124232FC2
:1041400001C0242F2C932285DC01A20FB11D1C93EA
:104150002385DC01A20FB11DDC932485FC01E20F55
:10416000F11DC083DF91CF911F910F91FF90EF90D0
:10417000DF90CF900895962F50E060E070E0592BCB
:10418000682BCB01BA0108952091DF05222399F015
:104190003FB7F8942091DF05213059F42DB32093D7
:1041A000DD054DB32091DE05209524232DBB3FBFB7
:1041B00002C03093DD058CBD9DBD08958091DF0563
:1041C000882361F09FB7F8942091DF058091DD0589
:1041D000213019F48DBB9FBF08958FBF08957F9242
:1041E0008F929F92AF92BF92CF92DF92EF92FF9207
:1041F0000F931F93CF93DF936C01162F942EE90139
:104200001E77106883E590E00E94C42060E0F6010C
:1042100084850E945A299A94812F0E944E137C2EE5
:10422000EC2EFD2EAA24A394B12C8E2D871989156E
:1042300028F581111AC00023C1F0802F812C88300D
:1042400048F49501082E01C0220F0A94EAF7822A49
:104250008F5FF5CF812F0E944E13982D9095288166
:1042600092238821982B988305C0812F0E944E139A
:10427000F7018083FFEFEF1AFF0AD7CFC90DD11DD9
:1042800080E00E944E13888361E0F60184850E94DD
:104290005A29DF91CF911F910F91FF90EF90DF90FE
:1042A000CF90BF90AF909F908F907F900C94DE2026
:1042B000FC01648745870895EF92FF921F93CF9387
:1042C000DF931F92CDB7DEB77C01162F83E590E018
:1042D00049830E94C42060E0F70184850E945A2926
:1042E000812F8E770E944E134981842F0E944E1396
:1042F00061E0F70184850E945A290F90DF91CF91E8
:104300001F91FF90EF900C94DE20CF92DF92EF92FE
:10431000FF920F931F93CF93DF9300D0CDB7DEB7FB
:104320008C01E62EF42E83E590E029833A830E94E7
:10433000C42060E0F80184850E945A298E2D8E7772
:104340000E944E132981E22EC22E3A81D32E8C2D4B
:104350008E198F1530F4F60181916F010E944E1372
:10436000F6CF61E0F80184850E945A290F900F90E2
:10437000DF91CF911F910F91FF90EF90DF90CF9041
:104380000C94DE201F93CF93DF93EC01162F83E56F
:1043900090E00E94C42060E08C850E945A29812F01
:1043A0008E7780680E944E1380E00E944E13182F73
:1043B00061E08C850E945A290E94DE20812FDF91C6
:1043C000CF911F9108950F9341110E94EF200F91FB
:1043D0000895EF92FF921F93CF93DF931F92CDB773
:1043E000DEB77C01162F49830E94C2214981482BE8
:1043F000612FC7010F90DF91CF911F91FF90EF9038
:104400000C945C21EF92FF921F93CF93DF931F9246
:10441000CDB7DEB77C01162F49830E94C2214981A6
:1044200040954823612FC7010F90DF91CF911F91D5
:10443000FF90EF900C945C21DF92EF92FF920F932C
:104440001F93CF93DF93EC018B01D42E790140E0D1
:1044500062E00E945C2144E06AE0CE010E945C219F
:1044600040E864E1CE010E94E92198014D2D62E10E
:10447000CE010E94852143E062E0CE010E945C21D2
:1044800008E813E16AE0CE010E94C22182FD06C065
:1044900001501109B9F783E090E013C040E062E0F9
:1044A000CE010E945C2164E4CE010E94C221F7018A
:1044B000808362E4CE010E94C221F701818380E003
:1044C00090E0DF91CF911F910F91FF90EF90DF90DF
:1044D0000895CF93DF93EC014FE062E00E945C21EE
:1044E00062E370E080E090E00E940C2862E0CE0180
:1044F0000E94C22184FDFACFDF91CF910895CF931E
:10450000DF93EC0168E20E94C221982F93709330F0
:1045100041F0482F436068E2CE01DF91CF910C94C7
:104520005C21DF91CF910895CF93DF93EC0161E09F
:104530008C850E94212961E08C850E945A2961E0C6
:104540008D850E9421298D850E949029892B59F4FF
:1045500061E08D850E945A2962E370E080E090E07E
:104560000E940C2803C0CE010E94692240E864E545
:10457000CE010E945C2149EA66E5CE010E945C21E1
:1045800043E068E5CE010E945C2148EE6AE5CE0179
:104590000E945C2140E46AE2CE010E945C214DE36E
:1045A00062E2CE010E945C21CE01DF91CF910C949A
:1045B0007F222F923F925F926F927F928F929F9273
:1045C000AF92BF92CF92DF92EF92FF920F931F9321
:1045D000CF93DF9300D000D0CDB7DEB73C01962E4D
:1045E000542E302E082DA114B10419F0F50140818C
:1045F00001C040E0242EF0E10F9F200C112440E088
:1046000062E0C3012B833C830E945C214FE768E09A
:10461000C3010E945C2140E864E1C3010E94E921DA
:104620002B813C81432D62E1C3010E948521422DF3
:104630006AE1C3010E945C21492D62E0C3010E942E
:104640005C218CE0981205C040E86AE1C3010E9439
:10465000E92190ED292E97E0392E68E0C3010E94F0
:10466000C221982F952139F480FD62C0E1E02E1A15
:10467000310899F75DC06CE0C3010E94C221982EF9
:10468000837109F057C0E114F104F1F0C114D104B1
:10469000D9F064E1C3010E94C221482FF601808154
:1046A000841708F449C04083970162E1C3010E9466
:1046B000E32168E1C3010E94C221182F1770A114E1
:1046C000B10411F0F501108393FC38C0E114F1043A
:1046D000B9F1C114D104A1F1888D882389F1F601C3
:1046E0004081413019F4143019F420C0423010F4E4
:1046F00087E027C01111FCCF42509E012F5F3F4F32
:10470000B701C3010E941C220097E1F4F6018081E9
:10471000E80EF11CF7013297908189819813E8CF58
:10472000319690818A819813E3CF0AC08FEF09C038
:1047300083E007C081E005C084E003C082E001C0DF
:1047400080E090E00F900F900F900F90DF91CF914D
:104750001F910F91FF90EF90DF90CF90BF90AF909F
:104760009F908F907F906F905F903F902F900895D3
:104770008F92AF92BF92CF92DF92EF92FF920F9300
:104780001F93AF928C2C570168017901042F9B0174
:1047900040E36CE00E94D9220F901F910F91FF908F
:1047A000EF90DF90CF90BF90AF908F9008954F9291
:1047B0005F926F927F928F929F92AF92CF92EF9281
:1047C000FF920F931F93CF93DF9300D0CDB7DEB747
:1047D0003C016A832A0149014115510531F1F90172
:1047E0008081823010F140E86CE1C3010E94022216
:1047F00087E08983A12CC12CCE0101967C01840124
:10480000920141E0BE016E5F7F4FC3010E94B82359
:10481000009779F4F4018081823049F481E090E0DE
:104820002981211106C080E004C084E001C081E03C
:1048300090E00F900F90DF91CF911F910F91FF901B
:10484000EF90CF90AF909F908F907F906F905F9000
:104850004F9008959A01AB0166E20C94D7232F92F2
:104860003F924F925F926F927F928F929F92AF9200
:10487000BF92CF92DF92EF92FF920F931F93CF934D
:10488000DF93CDB7DEB72D970FB6F894DEBF0FBE1E
:10489000CDBF3C012B01B42E40E54B1508F4E6C01A
:1048A00040E86CE10E9402222224239482E0281630
:1048B00091F093E02916E1F0A1E02A12DBC083E930
:1048C0008983BB20D1F041E0F2018081853008F47A
:1048D00040E0D12C17C085E98983BB2081F041E0FD
:1048E000D2018C91883008F440E073E0D72E0AC0E2
:1048F00087E9898366E0D62E04C0D12C02C053E03C
:10490000D52E40E05B2DB8EFDB9E500D112457FDF6
:1049100050E0442321F088E88B8373E001C072E00B
:1049200091E0852F877009F490E0852F8595859516
:104930008595890F21F4442311F1585F20C0442349
:1049400011F063E001C064E0861708F4682F80E08E
:1049500090E092012D0D311DE72FE80FA1E0B0E0AE
:10496000AC0FBD1FAE0FB11DFD01D901A80FB91FBE
:104970001196AC91A0830196861770F3DCCF43E0CB
:10498000342E50320CF457C0B0E7BA838C819B812F
:1049900089279D8189279E8189278F839E01285F92
:1049A0003F4F47E0BE016F5F7F4FC3015D870E94AD
:1049B0001C225D85009709F0ACC01B863A86FE017B
:1049C00037964F0179E00BC0780F88248394912C9F
:1049D0008C0E9D1E880E911C87E0821B8A87CB84DB
:1049E0004C2D4295407F4C0D6AE1C3015D877C8769
:1049F0000E945C21A12CCE010B967C018E01065FEA
:104A00001F4F94017C85472FBE016F5F7F4FC3010D
:104A10000E94B8235D858230910509F56CE1C301E0
:104A20000E94C2215D8585FD23C052301CF58B811B
:104A300082608B8352E0952F97709B87252F259559
:104A40002595259582E0820F392FF0E18F9F300D5B
:104A500011243A8371E09111B7CF70E0B5CF009780
:104A600009F057C0503294F450E28ECF86E00CC06B
:104A700082E00AC085E008C0F2018387822D880F9A
:104A8000820D8F5F808380E090E043C08B81883807
:104A900019F052E044E002C053E043E080E090E0CF
:104AA00092012D0D311DF901E80FF91F652F680FD7
:104AB000A1E0B0E0AC0FBD1FA60FB11D6C916183EA
:104AC0000196841780F38A858330F9F48B858111F0
:104AD0001CC09E012D5F3F4F41E0B401C3010E9405
:104AE0001C220097B1F49B81D40111968C911197EF
:104AF00098130DC09C8112968C911297981307C041
:104B00008C9182FFB9CF2394D1CE81E0BDCF87E0D5
:104B1000BBCF2D960FB6F894DEBF0FBECDBFDF9191
:104B2000CF911F910F91FF90EF90DF90CF90BF90AA
:104B3000AF909F908F907F906F905F904F903F903D
:104B40002F9008958F929F92AF92CF92EF92FF9203
:104B50000F931F93CF93DF9300D000D0CDB7DEB774
:104B60004C0180E589831A829E012D5F3F4F42E010
:104B7000BE016F5F7F4FC4010E941C220097C1F4E9
:104B8000A12CC12CE12CF12C00E010E020E030E061
:104B900044E0BE016F5F7F4FC4010E94B8238330A1
:104BA000910521F0009721F481E001C080E090E0C0
:104BB0000F900F900F900F90DF91CF911F910F9159
:104BC000FF90EF90CF90AF909F908F9008958F922D
:104BD000AF92BF92CF92DF92EF92FF920F931F930B
:104BE000CF93DF93CDB7DEB72C970FB6F894DEBF27
:104BF0000FBECDBFF80169834A8389019E012D5FF5
:104C00003F4FAE01475F5F4FD8016D918D01D901D4
:104C10006D939D01A417B507B9F7218129872281DA
:104C20002A8723812B8724812C871F92812CA12CFA
:104C3000B12CC12CD12CE12CF12C0CE09E012F5F6A
:104C40003F4F40E16EE00E94D9220F902C960FB6A4
:104C5000F894DEBF0FBECDBFDF91CF911F910F91B2
:104C6000FF90EF90DF90CF90BF90AF908F9008951E
:104C700048E060E10C9402228F929F92AF92CF9213
:104C8000EF92FF920F931F93CF93DF934C01EA01B2
:104C900089012097E9F0F90180818231C8F080E331
:104CA000888369839A012E5F3F4F42E0BE01C401B1
:104CB0000E941C22009771F4AA24A394C12CE12C19
:104CC000F12C9E0144E0BE01C4010E94B82302C041
:104CD00084E090E0DF91CF911F910F91FF90EF90D2
:104CE000CF90AF909F908F900895CF936EE60E94E3
:104CF000C221C82F69E271E080ED96E00E948E2CFF
:104D000040E150E06C2F80ED96E00E94C42DC03948
:104D100069F028F4C83881F46EE171E00FC0C13940
:104D200041F0C23949F466E071E008C066E171E023
:104D300005C06EE071E002C069EF70E080ED96E0C2
:104D40000E94D02CC150CE3F38F066EB70E080ED71
:104D500096E0CF910C94D02CCF910895CF93DF9310
:104D600000D01F92CDB7DEB722E02B83AE014D5F9E
:104D70005F4FBE016F5F7F4F0E942A24009731F082
:104D800021E0029709F020E0822F01C081E00F901E
:104D90000F900F90DF91CF91089540E0BC010E94E9
:104DA0002F2421E0892B09F020E0822F08951F9203
:104DB0000F920FB60F9211242F933F934F935F934F
:104DC0006F937F938F939F93AF93BF93EF93FF93D3
:104DD0008091A20687FF05C0109285001092840082
:104DE0001AC02091A206332727FD30958091A10695
:104DF00090E0281739077CF48091A206992787FD57
:104E00009095FC01EE0FFF1FE80FF91FED55F94FCC
:104E1000808186FD15C08091A2068F5F8093A206D7
:104E20002091A206332727FD30958091A10690E0BE
:104E300028173907BCF48091A2068C305CF112C0AF
:104E40008091A206992787FD9095FC01EE0FFF1F28
:104E5000E80FF91FED55F94F808160E08F730E94D4
:104E60005A29D9CF80918400909185000496803290
:104E70009E4418F480E29EE405C0809184009091E5
:104E80008500049690938900809388008FEF80932B
:104E9000A20638C020918400309185008091A2063E
:104EA000992787FD9095FC01EE0FFF1FE80FF91F72
:104EB000ED55F94F81819281820F931F9093890064
:104EC000809388008091A206992787FD9095FC0128
:104ED000EE0FFF1FE80FF91FED55F94F808186FF98
:104EE00011C08091A206992787FD9095FC01EE0FD5
:104EF000FF1FE80FF91FED55F94F808161E08F73B7
:104F00000E945A29FF91EF91BF91AF919F918F918C
:104F10007F916F915F914F913F912F910F900FBEB5
:104F20000F901F9018951F920F920FB60F92112499
:104F30002F933F938F939F93AF93BF938091C80616
:104F40009091C906A091CA06B091CB063091C706D0
:104F500026E0230F2D3720F40296A11DB11D05C0B8
:104F600029E8230F0396A11DB11D2093C706809346
:104F7000C8069093C906A093CA06B093CB06809149
:104F8000CC069091CD06A091CE06B091CF060196A9
:104F9000A11DB11D8093CC069093CD06A093CE06A3
:104FA000B093CF06BF91AF919F918F913F912F9179
:104FB0000F900FBE0F901F9018952FB7F894609127
:104FC000C8067091C9068091CA069091CB062FBF82
:104FD00008953FB7F8948091CC069091CD06A091AA
:104FE000CE06B091CF0626B5A89B05C02F3F19F07D
:104FF0000196A11DB11D3FBF6627782F892F9A2FDB
:10500000620F711D811D911D43E0660F771F881F80
:10501000991F4A95D1F70895CF92DF92EF92FF92B0
:10502000CF93DF936B017C010E94E927EB01C11450
:10503000D104E104F10489F00E94292F0E94E9279C
:105040006C1B7D0B683E734090F381E0C81AD10859
:10505000E108F108C851DC4FEACFDF91CF91FF9012
:10506000EF90DF90CF9008958130910539F002974D
:1050700029F0880F991F01970197F1F70895789407
:1050800084B5826084BD84B5816084BD85B582604D
:1050900085BD85B5816085BDEEE6F0E080818160EB
:1050A0008083E1E8F0E010828081826080838081EB
:1050B00081608083E0E8F0E0808181608083E1EBC3
:1050C000F0E0808184608083E0EBF0E080818160AB
:1050D0008083EAE7F0E08081846080838081826061
:1050E000808380818160808380818068808310924A
:1050F000C1000895883018F09FE1981B892F8770B0
:105100002091140190E4299F90011124822B809317
:105110007C0080917A00806480937A0080917A008C
:1051200086FDFCCF809178002091790090E0922B51
:1051300008951F93CF93DF93182FEB0161E00E9436
:105140002129209711F460E004C0CF3FD10539F444
:1051500061E0812FDF91CF911F910C945A29E12FAB
:10516000F0E0E25CFE4FE491E330F9F048F4E13026
:10517000B9F0E230A1F584B5806284BDC8BD34C009
:10518000E730E9F0E83019F1E43049F5809180002A
:10519000806280938000D0938B00C0938A0024C0EB
:1051A00084B5806884BDC7BD1FC0809180008068C1
:1051B00080938000D0938900C093880015C08091AF
:1051C000B00080688093B000C093B3000DC08091A0
:1051D000B00080628093B000C093B40005C0C038B6
:1051E000D1050CF0B5CFAFCFDF91CF911F910895CE
:1051F000833081F028F4813099F08230A1F0089555
:105200008730A9F08830B9F08430D1F480918000E3
:105210008F7D03C0809180008F77809380000895F8
:1052200084B58F7702C084B58F7D84BD0895809149
:10523000B0008F7703C08091B0008F7D8093B00065
:105240000895CF93DF9390E0FC01E25AFE4F249142
:10525000FC01E258FE4F8491882349F190E0880FC9
:10526000991FFC01EE54FE4FA591B49188559E4FB5
:10527000FC01C591D4919FB7611108C0F8948C913D
:10528000209582238C93888182230AC0623051F456
:10529000F8948C91322F309583238C938881822BC4
:1052A000888304C0F8948C91822B8C939FBFDF91EC
:1052B000CF9108950F931F93CF93DF931F92CDB794
:1052C000DEB7282F30E0F901E25CFE4F8491F9014E
:1052D000E25AFE4F1491F901E258FE4F0491002367
:1052E000C9F0882321F069830E94F8286981E02FA2
:1052F000F0E0EE0FFF1FE855FE4FA591B4919FB768
:10530000F8948C91611103C01095812301C0812B09
:105310008C939FBF0F90DF91CF911F910F910895B4
:10532000CF93DF93282F30E0F901E25CFE4F8491A8
:10533000F901E25AFE4FD491F901E258FE4FC491AF
:10534000CC2391F081110E94F828EC2FF0E0EE0FB1
:10535000FF1FE256FE4FA591B4912C912D2381E0C1
:1053600090E021F480E002C080E090E0DF91CF91F6
:105370000895CF92DF92EF92FF920F931F93CF93F6
:10538000DF9390E0FC01E25AFE4FD491FC01E25819
:10539000FE4F7491611102C0C0E001C0CD2FDA014F
:1053A000C90133E0880F991FAA1FBB1F3A95D1F797
:1053B00044E0B695A795979587954A95D1F7672FBD
:1053C00070E0660F771F62567E4F00E010E0980194
:1053D000FB01E590F490F70140814D234C131EC072
:1053E000680179014FEFC41AD40AE40AF40A0817D5
:1053F00019072A073B0709F442C097018601E8CF45
:1054000068017901FFEFCF1ADF0AEF0AFF0A0817D8
:1054100019072A073B0799F197018601FB01E590DF
:10542000F490F70140814D234C13EACF801B910B80
:10543000A20BB30B20E030E0A901FB01E590F49052
:10544000F701F080FD22FC120AC0281739074A072D
:105450005B07A9F02F5F3F4F4F4F5F4FEECFA8E1A3
:10546000B0E00E949732605F7F4F8F4F9F4F23E0E5
:1054700096958795779567952A95D1F703C060E053
:1054800070E0CB01DF91CF911F910F91FF90EF90D2
:10549000DF90CF900895FC01818D228D90E0805C9B
:1054A0009F4F821B91098F7399270895FC01918D5D
:1054B000828D981731F0828DE80FF11D858D90E077
:1054C00008958FEF9FEF0895FC01918D828D9817BD
:1054D00061F0828DDF01A80FB11D5D968C91928DD8
:1054E0009F5F9F73928F90E008958FEF9FEF0895D5
:1054F00083EF9BE2892B41F080E090E0892B21F043
:105500000E94F32B81110DC080E090E0892B71F097
:1055100080E090E0892B51F00E940000811104C0CE
:1055200008950E940000F0CF0C9400000895FC0143
:10553000848DDF01A80FB11DA35ABF4F2C91848D1C
:1055400090E001968F739927848FA689B7892C9351
:10555000A089B1898C9180648C93938D848D9813EC
:1055600006C00288F389E02D80818F7D80830895B5
:10557000CF93DF93EC01888D8823C9F0EA89FB89FA
:10558000808185FD05C0A889B9898C9186FD0FC0F1
:105590000FB607FCF5CF808185FFF2CFA889B989C6
:1055A0008C9185FFEDCFCE010E94972AE7CFDF9146
:1055B000CF910895CF92DF92FF920F931F93CF93D5
:1055C000DF931F92CDB7DEB76C01DC015B969C9137
:1055D0005B975C968C915C97981307C05096ED9101
:1055E000FC915197808185FD32C0F601038D10E05A
:1055F0000F5F1F4F0F731127F02EF601848DF812E5
:1056000011C00FB607FCF9CFD6015096ED91FC9171
:105610005197808185FFF1CFC60169830E94972A47
:105620006981EBCF838DE80FF11DE35AFF4F608353
:10563000D6015B960C935B975296ED91FC91539734
:1056400080818062808381E058968C930DC0D60162
:105650005696ED91FC91579760835096ED91FC9191
:10566000519780818064808381E090E00F90DF918A
:10567000CF911F910F91FF90DF90CF900895BF922F
:10568000CF92DF92EF92FF92CF93DF93EC016A010A
:105690007B01B22E60E874E88EE190E0A7019601EC
:1056A0000E945032215031094109510956954795C0
:1056B00037952795E889F98982E08083211580E173
:1056C000380798F0E889F989108260E472E48FE085
:1056D00090E0A70196010E94503221503109410902
:1056E00051095695479537952795EC85FD8530836B
:1056F000EE85FF852083188EEC89FD89B082EA89CA
:10570000FB89808180618083EA89FB898081886050
:105710008083EA89FB89808180688083EA89FB89AC
:1057200080818F7D8083DF91CF91FF90EF90DF901C
:10573000CF90BF9008951F920F920FB60F92112431
:105740002F938F939F93EF93FF93E091E006F09157
:10575000E1068081E091E606F091E70682FD12C045
:1057600090818091E9068F5F8F732091EA068217FE
:1057700051F0E091E906F0E0E053F94F958F809306
:10578000E90601C08081FF91EF919F918F912F9148
:105790000F900FBE0F901F9018951F920F920FB68B
:1057A0000F9211242F933F934F935F936F937F93A7
:1057B0008F939F93AF93BF93EF93FF9380ED96E00A
:1057C0000E94972AFF91EF91BF91AF919F918F9186
:1057D0007F916F915F914F913F912F910F900FBEED
:1057E0000F901F90189580ED96E00E944B2A21E0C3
:1057F000892B09F420E0822F08951092D30610928D
:10580000D20688EE93E0A0E0B0E08093D4069093B7
:10581000D506A093D606B093D7068BE392E090937B
:10582000D1068093D00685EC90E09093DD068093BE
:10583000DC0684EC90E09093DF068093DE0680EC3B
:1058400090E09093E1068093E00681EC90E09093E5
:10585000E3068093E20682EC90E09093E506809365
:10586000E40686EC90E09093E7068093E6061092BB
:10587000E9061092EA061092EB061092EC060895E3
:1058800008950E943F280E94402C0E942B09C8E7DF
:10589000DAE20E94B40B2097E1F30E94782AF9CF54
:1058A000CF92DF92EF92FF920F931F93CF93DF93EC
:1058B0006C017A01EB01E60EF71E00E010E0CE1558
:1058C000DF0561F06991D601ED91FC910190F081C5
:1058D000E02DC6010995080F191FF1CFC801DF910E
:1058E000CF911F910F91FF90EF90DF90CF9008958F
:1058F0006115710581F0DB010D900020E9F7AD0124
:1059000041505109461B570BDC01ED91FC9102807F
:10591000F381E02D099480E090E00895EF92FF92EA
:105920000F931F93CF93DF938C01FB01C0E0D0E076
:1059300064917F018FEFE81AF80A662361F0D801BD
:10594000ED91FC910190F081E02DC8010995C80FFF
:10595000D91FF701EDCFCE01DF91CF911F910F91AC
:10596000FF90EF9008950C94782CDC01ED91FC9160
:105970000190F081E02D09940F931F93CF93DF9353
:10598000EC016DE00E94B52C8C016AE0CE010E9412
:10599000B52C800F911FDF91CF911F910F9108952A
:1059A0000F931F93CF93DF93EC010E948E2C8C01F9
:1059B000CE010E94BC2C800F911FDF91CF911F91CF
:1059C0000F9108950F931F93CF93DF93EC010E94E3
:1059D000782C8C01CE010E94BC2C800F911FDF918E
:1059E000CF911F910F9108958F929F92AF92BF9286
:1059F000CF92DF92EF92FF920F931F93CF93DF939B
:105A0000CDB7DEB7A1970FB6F894DEBF0FBECDBFFE
:105A10007C01C42EE52FCB01D22E19A221E02D1539
:105A200010F02AE0D22E8E010F5D1F4F8D2C912C8D
:105A3000A12CB12C6C2D7E2FA50194010E94503217
:105A40008C2DD29E80191124015011098A3014F432
:105A5000805D01C0895CF801808321153105410515
:105A6000510521F0C22EE32FCA01E4CFB801C701CE
:105A70000E94782CA1960FB6F894DEBF0FBECDBF62
:105A8000DF91CF911F910F91FF90EF90DF90CF901A
:105A9000BF90AF909F908F900895CF92DF92EF923A
:105AA000FF920F931F93CF93DF93EC016A017B0169
:105AB0002115310579F4E881F9810190F081E02D1B
:105AC000642FDF91CF911F910F91FF90EF90DF90A6
:105AD000CF9009942A303105E9F477FF1AC06DE2BE
